:10010200120100020000004005168080000001027A
:020112000001EA
:0A0116000A0600020000004001008C
:100122000902270001010080320904000003FF00D8
:10013200000007058102400000070582020002005C
:07014200070588020002001E
:10014A000902270001010080320904000003FF00B0
:10015A0000000705810240000007058202400000F6
:07016A0007058802400000B8
:100172001403000000000000000000000000000066
:10018200000000000C0341004300430045005300FF
:100192001E035700410054004300480044004F0032
:1001A2004700000000000000000000000000000006
:0A310C00000102020303040405059C
:10008000EC4EFEED4F240CF58274313EF583E49383
:10009000FF3395E0FEEF24A1FFEE34E68F82F58377
:1000A0002290E6BCE0547EFF7E00E0D394807C008A
:1000B00022F0E5342401FFE43533FEE43532FDE47B
:1000C00035318F348E338D32F53122AF38AE37ADC6
:1000D00036AC35AB34AA33A932A831C3020819E5CE
:0C00E0003E2534F582E53D3533F58322E2
:10199800E4F53CF53BF53AF539C23CC239C23BC2E5
:1019A8003A1224C67E017F028E0A8F0B75120175CA
:1019B800131675080175092275100175114A7514F9
:1019C80001751572EE54E07003021A84753D0075B6
:1019D8003E808E3F8F40C374B09FFF74019ECF241A
:1019E80002CF3400FEE48F388E37F536F535F534FE
:1019F800F533F532F5311200CB500A1200DF74CD01
:101A08001200B180F1E4F534F533F532F531120006
:101A1800CB5017E5402534F582E53F3533F583E0B3
:101A2800FF1200DFEF1200B180E4853D0A853E0B0E
:101A380074022480FF740134FFFEC3E5139FF5137D
:101A4800E5129EF512C3E50D9FF50DE50C9EF50C0C
:101A5800C3E50F9FF50FE50E9EF50EC3E5099FF54B
:101A680009E5089EF508C3E5119FF511E5109EF5F7
:101A780010C3E5159FF515E5149EF514D2E843D873
:101A88002090E668E04409F090E65CE0443DF0D23E
:101A9800AFD241122C9590E680E054F7F0538EF8BF
:101AA800C23C303A05121359C23A303C2912316F00
:101AB8005024C23C122D6A20391690E682E030E7A5
:101AC80004E020E1EF90E682E030E604E020E0E484
:0B1AD800122CC4123171121E9D80C739
:1013590090E6B9E012087713FD0014510114AB03AC
:10136900137C0613F70813F10913E50A13EB0B00B5
:101379000014E212316740030214EE90E6BBE02448
:10138900FE602214603324FD60111460222406706B
:1013990048E50A90E6B3F0E50B8037E51290E6B32D
:1013A900F0E513802DE50C90E6B3F0E50D8023E51B
:1013B9000E90E6B3F0E50F801990E6BAE0FF122C23
:1013C900F0AA06A9077B01EA494B600DEE90E6B346
:1013D900F0EF90E6B4F00214EE0214E712312A029B
:1013E90014EE1231200214EE122E980214EE12316C
:1013F900160214EE12316940030214EE90E6B8E0C9
:10140900247F60151460192402703AA239E4332547
:10141900E0FFA23BE4334F8018E490E740F08016E8
:101429001200A140047D0180027D00120080E05479
:101439000190E740F0E4A3F090E68AF090E68B741F
:1014490002F00214EE0214E712316B40030214EEAB
:1014590090E6B8E024FE6016240260030214EE90C0
:10146900E6BAE0B40105C2390214EE0214E790E6C7
:10147900BAE0702C1200A140047D0180027D0012A7
:101489000080E054FEF090E6BCE05480131313543E
:101499001FFFE0540F2F90E683F0E04420F08045D1
:1014A900803C12316D503E90E6B8E024FE601A246B
:1014B90002703290E6BAE0B40104D239802790E68E
:1014C900BAE0B40202801E80151200A140047D0119
:1014D90080027D001200808008122051500790E69A
:0C14E900A0E04401F090E6A0E04480F098
:0114F50022D4
:0300330002316037
:0431600053D8EF321F
:102DFB00E4FFFE7D807C471201B5020401E4FBFA7F
:102E0B00903F8012082A0202ADE6FE08E6F58BEE33
:032E1B00F58D2210
:10234F008F4C8E4B8D4A8C49E4FFFEFDFCAB4CAAA3
:0F235F004BA94AA84974E012034C7003C28E22A6
:10236E00E589540F4410F589538EEF794078411268
:10237E002E08AB4CAA4BA94AA8491202AD8F508E1B
:10238E004F8D4E8C4DAB50AA4FA94EA84D122DFB22
:10239E00781CA60608A607C28E18122E14D2ABD22F
:0123AE008EA0
:0123AF00220B
:082812008F4C8E4B8D4A8C495E
:10281A0079807840122E08AB4CAA4BA94AA84912D3
:10282A0002ADAB07AA06A905A804122DFBAD07AC99
:10283A0006E4F5C8438E20AF04ECF5CB8FCDAF0587
:0B284A00EDF5CA8FCCD2BDD2ADD2CAD2
:012855002260
:03001B00022E5C56
:102E5C00C0E0C0D075D000C000C006781C122E1483
:0E2E6C00A291B39291D006D000D0D0D0E03227
:03002B0002265852
:10265800C0E0C0F0C083C082C085C084C0867586D3
:1026680000C0D075D000C000C001C002C003C004C3
:10267800C005C006C0071223B0C2CFD007D006D00D
:1026880005D004D003D002D001D000D0D0D086D05D
:0C26980084D085D082D083D0F0D0E03216
:1022E900456E61626C6520414443004469736162D3
:1022F9006C652041444300414343455320504349C1
:10230900652D5744472D43534D41204331002D53EB
:102319003031204D6F646500504349652D5744475E
:102329002D43534D4100504349652D5744472D4393
:10233900534D00414343455320504349652D57446C
:06234900472D3F3F3F005D
:0F302E00C13FC13D019CFFC13E017100017264B1
:10180F00E6FF784BE475F001120867EF020770E608
:10181F00FFAE47054774402EF582E434E7F5832287
:10182F00120770784BE475F001020867EE75F0034C
:10183F00A42410F582E4343FF5832290E6BDE0FE48
:10184F0090E6BCE02400FDEC3EFC90E6BFE0FE908D
:10185F00E6BEE07A002400FBEA3EFA22E090E74081
:10186F00F0E490E68AF090E68B22E5801313543F64
:10187F00227D017B007A0079887E00020986EE7551
:10188F00F003A42412F582E4343FF583222542F5B8
:10189F0042E5453541F541C3E5449546F544E543F9
:1018AF009545F543227586005391EF90E65D2274BE
:1018BF00402548F58274E73547F58322C2AFAE4520
:1018CF00AF4678887C00FD7B017AE7794022AD46F0
:1018DF007AE779407F40AB072290E6BBE0FE90E6C7
:1018EF00BAE07C002400FFEC3EFE227D017B007AF3
:1018FF000079A07E0012098690E74022C3E5489543
:10190F0046E5479545227C037DE81207A4EF7896BC
:10191F00F6EE08F622E490E68AF090E6BEE090E656
:10192F008BF02275F003A42411F582E4343FF58384
:10193F002290E68AE546F090E68BE545F022E542F7
:10194F002548F582E5413547F5832274002541F995
:10195F00EE34FCFA7B0122F582E4343FF5832285D5
:10196F000D82850C83A37402F022850F82850E836E
:10197F00A37407F022D3E5469400E545940022D3E3
:09198F00E5469400E545940022B0
:0F30730090E6C2E02041044402F02254FDF02216
:0F30820090E6C2E02041044401F02254FEF02207
:0F30910090E6C2E02041044404F02254FBF022F8
:0F30A00090E6C2E02040044402F02254FDF022EA
:0F30AF0090E6C2E02040044401F02254FEF022DB
:0F30BE0090E6C2E02040044404F02254FBF022CC
:07314D00EFF490E6C2F0224E
:03316400D29522DF
:1000EC00D295E4FFFE000FBF00010EBE04F7BFB0B7
:0300FC00F4C295B6
:0100FF0022DE
:062899008B4A8A4B894CBA
:10289F008B4D8A4E894F784D121834E523120770ED
:1028AF0090E685E0FF784D121834EF12077090E62E
:1028BF0084E0FF784D121834EF120770784D12181C
:0B28CF0034ED120770C3E54F954CFF7D
:0128DA0022DB
:0621F9008B488A49894A67
:1021FF008B4B8A4C894D121832E52312182FE5228A
:10220F0012182FE52112182FE52512077078AE123C
:10221F00180F78AD12180F788612180F78851218CC
:10222F000F787C12180F787B12180F787E12180F08
:10223F00787D12180F788012180F787F12180F7888
:10224F008212180F788112180F121832E524120714
:10225F0070788712180F789B12180F789D12180F2D
:10226F00788312180F788412180FC3E54D954AFF23
:01227F00223C
:0528DB00E5AA30E63A19
:1028E0007541017E0012195A78ACE6FD122899EF65
:1028F0002541F541E478ACF612195A1221F9EF2579
:1029000041F541E47887F6F52490FC00E541F0902C
:0A291000E69C7402F0E490E69DF0EE
:01291A00229A
:07315400EF448078ACF62285
:072C6600AD07E5AA30E027ED
:102C6D007549017E0074002549F9EE34F0FA7B01B7
:102C7D00122899EF2549F54990F000F090E69074EF
:072C8D0002F0E490E691F073
:012C9400221D
:102FF500200710D207D23EC2007F01122C667F0542
:04300500121DDD2299
:102ED400203D19D23DD2947898E6FBF460077D0139
:0D2EE4007F0B122F5ED2077F06121DDD222C
:102A8A00EF30E505903F02EDF0EF30E405903F03AB
:102A9A00EDF0EF30E305903F09EDF0EF30E20590FD
:102AAA003F08EDF0EF30E105903F07EDF0EF30E041
:072ABA0005903F06EDF0223C
:10273A008F49E549C3941F500280027F1F8F49E5E4
:10274A0049C3941F501778407CE77F0E121880788F
:10275A004D7CE77F0A1218FA7418F0801578417CCC
:10276A00E77F1212188078537CE77F0C1218FA74EC
:09277A001FF0121870E549F0226D
:1014F6008E418F428C438D448A458B4690E6B8E0F8
:1015060030E70302167A12301C121984404D121964
:101516002490E6A0E020E1F9E5466412454570080E
:101526001218CB1209868029E546640E45456003EC
:0315360002168416
:101539001218CB12098678897602788CE6FE18E6AD
:10154900FDEEF547EDF548FF1219150876FFD2AF04
:06155900788AE6FF7E0027
:10155F00805BE5448543F012089D15D3000115F516
:10156F00000215B8004415BF004515A8004915AD78
:10157F00004A15A5005215C5005415CC005515B2DB
:10158F00006915B5006A15F88000161680011666F9
:10159F00800200001684023062E4FF022C667F0294
:1015AF00023154022FA1022FB6AF42AE41022D1CC1
:1015BF00E5427898F622AF42AE41023040AF42AEDC
:1015CF0041022E7A308703021684E541454224FFFB
:1015DF00B39295E542454170047F0180027F00EF91
:1015EF0024FFB3923F2202256BE4FBFD7F08122FED
:1015FF005E7F007E007D007C0012234F308705C286
:10160F0090C29122C29122308733E541700EC29170
:10161F00FBFD7F08122F5EC291C29022E541FFBFF2
:10162F000105308613800CEF64027049E542C394C4
:10163F00805005C290D29122C291D29022E541FFF3
:10164F00BFFF09E542FB7DFF7F08801CAC41AD4227
:10165F00E41203C802234FC3E541948040047F097D
:10166F0080027F0A7B507D02022F5E121984400593
:06167F00AF4612273A22DB
:101CEC008F418D428B4390E6B8E030E703021D80B4
:101CFC00E5457074E5467070E5447F00FEEF2543C2
:101D0C00FFE43EFEEF8EF012089D1D5200001D57A1
:101D1C0000011D6101001D6101011D6101021D61B8
:101D2C0001031D6101041D6101051D6101061D6199
:101D3C0001071D6101081D6101091D61010A1D6A70
:101D4C00FFFF00001DDCAF41022AC1E541FD7C0014
:101D5C00AF420220DFAB41AD42AF43022F5EE54202
:101D6C00606EAD41FF022A8A12194090E6A0E03065
:0B1D7C00E15E80F7E545D39400405580
:101D870075470174402547F9E434E7FA7B017DFF85
:101D9700122899EF2547F5472440F9E434E7FA7B01
:101DA700011221F9EF2547F547E47887F6F524E591
:101DB70043B4010C12295BAE470547121824EFF014
:101DC70090E740E547F0121940E5427008E541B455
:051DD70001031230DBE6
:011DDC0022E4
:1020510090E6B9E0120877207A10207A1120974093
:1020610020D6A220D6A320AAD420BDD520C4D62014
:10207100C9D720D1D8000020DB90E6BAE0FFA3E069
:10208100FDA3E0FBA3E0F544A3E0F545A3E0F5469D
:10209100121CEC0220DD1218E8C006C00712184A13
:1020A100D007D0061214F680331218E8C006C00714
:1020B10012184AD007D006120EF080207F01122C90
:1020C1006680081228DB80031226A412301C800CC3
:0E20D100122D6A8007121BEB8002D322C3225D
:100EF0008E418F428C438D448A458B4690E6B8E004
:100F000030E7030210B012198E400A12192490E63D
:100F1000A0E020E1F9E5428541F012089D0F9D0017
:100F200001101300A00FDE00B00FA900D010420185
:100F3000A0103C01A1103601A2103001A3102A011B
:100F4000A4102401A5101E01A6101801A7100D0160
:100F5000B0100701B1100101B20FFB01B30FF50191
:100F6000B40FEF01B50FE901B60FE301B70FD801D8
:100F7000D00FD201D10FCC01D20FC601D30FC001C7
:100F8000D40FBA01D50FB401D60FAE01D71048FF68
:100F9000001080FF0110A2FF0200001358E5445426
:100FA0000175F011A490E6C2F0E544F5B022E544E5
:100FB0001392B722E5441392B622E5441392B52268
:100FC000E5441392B422E5441392B322E54413920C
:100FD000B222E5441392B122E5441392B022E544D3
:100FE000F59022E54413929722E54413929622E568
:100FF0004413929522E54413929422E5441392936C
:1010000022E54413929222E54413929122E544137F
:10101000929022E544F58022E54413928722E5442C
:1010200013928622E54413928522E544139284228A
:10103000E54413928322E54413928222E5441392FD
:101040008122E5441392802212198E500302135814
:10105000AE45AF467C007D031207B6ED4C6003023F
:101060001358D3E5469430E54594004003021358E5
:10107000AE45AF4678107C3F7D011218D602098636
:10108000AF44E544BF010D1200ECD23F7BFF7A2252
:1010900079E9800B123164C23F7BFF7A2279F40236
:1010A000291BAF44BF0103D38001C3924102315BCE
:1010B000E5428541F012089D13320002134B0003F4
:1010C000124800A011C000B0113800D012C001A019
:1010D00012B001A112A001A2129001A3128001A4DA
:1010E000127001A5126001A6125001A7123801B0BA
:1010F000122801B1121801B2120801B311F801B49B
:1011000011E801B511D801B611C801B711B001D06D
:1011100011A001D1119001D2118001D3117001D41D
:10112000116001D5115001D6114001D712D0FF0036
:1011300012E6FF010000135890E740E5B00213519A
:1011400030B7047F0180027F0090E740EF02135127
:1011500030B6047F0180027F0090E740EF02135118
:1011600030B5047F0180027F0090E740EF02135109
:1011700030B4047F0180027F0090E740EF021351FA
:1011800030B3047F0180027F0090E740EF021351EB
:1011900030B2047F0180027F0090E740EF021351DC
:1011A00030B1047F0180027F0090E740EF021351CD
:1011B00030B0047F0180027F0090E740EF021351BE
:1011C00090E740E5900213513097047F0180027F41
:1011D0000090E740EF0213513096047F0180027FB8
:1011E0000090E740EF0213513095047F0180027FA9
:1011F0000090E740EF0213513094047F0180027F9A
:101200000090E740EF0213513093047F0180027F8A
:101210000090E740EF0213513092047F0180027F7B
:101220000090E740EF0213513091047F0180027F6C
:101230000090E740EF0213513090047F0180027F5D
:101240000090E740EF02135190E740E58002135110
:101250003087047F0180027F0090E740EF02135146
:101260003086047F0180027F0090E740EF02135137
:101270003085047F0180027F0090E740EF02135128
:101280003084047F0180027F0090E740EF02135119
:101290003083047F0180027F0090E740EF0213510A
:1012A0003082047F0180027F0090E740EF021351FB
:1012B0003081047F0180027F0090E740EF021351EC
:1012C0003080047F0180027F0090E740EF021351DD
:1012D000AE45AF4678407CE77D017B017A3F7910CF
:0612E0001209860213440E
:1012E600E4F54778B1E6FE08E6FDAC4705477440ED
:1012F6002C121827EDF0EE12181FEFF078A712182F
:101306001EEFF00812181EEFF0121820E575F0E532
:101316007412181FEFF0D3E5479546E4954540044F
:0C132600AF478002AF4690E68BEFF0224C
:1013320090E6F4E020E1047F0180027F0090E74024
:10134200EFF090E68BE546F02212187990E740F034
:0713520090E68B7401F0220C
:10301C00C2AFE4F574F575D2AFC23DD2007F0402A5
:02302C001DDDA8
:0D30E900C2AF0575E57570020574D2AF2207
:102E7A00AB07AA06C2AF7C037DE81207B6EF788BD0
:0E2E8A00F6EE08F6EB7896F6EA08F6D2AF22DE
:10304000AA06C2AFEF788BF6EA08F6121915D2AFCE
:01305000225D
:10168500AF23E5805403C454F0FEE5B0540F4EF586
:1016950023E5236F788746F6A21B301301B3502547
:1016A500903F0FE014F0E07024A21B301301B372D9
:1016B500239223A21B9213A213720B920BA22BA0AF
:1016C50013922B8000903F09E0903F0FF0A21A3053
:1016D5001201B35025903F0EE014F0E07024A21AD9
:1016E500301201B372229222A21A9212A212720A27
:1016F500920AA22AA012922A8000903F08E0903F09
:101705000EF0A219301101B35025903F0DE014F0F1
:10171500E07024A219301101B372219221A219920D
:1017250011A21172099209A229A011922980009093
:101735003F07E0903F0DF0A218301001B3502590FF
:101745003F0CE014F0E07024A218301001B37220B1
:101755009220A2189210A21072089208A228A01036
:1017650092288000903F06E0903F0CF0A21D3015B6
:1017750001B35025903F05E014F0E07024A21D3020
:101785001501B372259225A21D9215A215720D920F
:101795000DA22DA015922D8000903F03E0903F05EE
:1017A500F0A21C301401B35025903F04E014F0E082
:1017B5007024A21C301401B372249224A21C92142A
:1017C500A214720C920CA22CA014922C8000903FB3
:1017D50002E0903F04F0789BE655245522789D461B
:1017E500F67883E65524FFE522F45F0846F6789AF5
:1017F500E6F4552460057F021231547887E66005CA
:091805007F02123154789AA624E6
:01180E0022B7
:1020DF00EF12087721080021100121180221200397
:1020EF00212804215E0521530621480721300821AC
:1020FF00380921400A00002169EC4D24FF92B78076
:10210F005BEC4D24FF92B58053EC4D24FF92B680CB
:10211F004BEC4D24FF92978043EC4D24FF92968019
:10212F003BEC4D24FF92918033EC4D24FF92938032
:10213F002BEC4D24FF92928023EC4D24FF92411201
:10214F0030738018EC4D24FF9241123082800DECD9
:0E215F004D24FF92411230918002C322D32200
:101FB800EF1208771FE4001FEC011FF4021FFC0357
:101FC800200404203A05202F06202407200C08208E
:101FD8001409201C0A20450B0000204DEC4D24FF5D
:101FE80092B78063EC4D24FF92B5805BEC4D24FFE3
:101FF80092B68053EC4D24FF9297804BEC4D24FF12
:1020080092968043EC4D24FF9291803BEC4D24FF47
:1020180092938033EC4D24FF9292802BEC4D24FF59
:1020280092401230A08020EC4D24FF92401230AF35
:102038008015EC4D24FF92401230BE800AEC4D24EE
:09204800FF92948002C322D3220E
:102AC100903F10E07005EFA2E392B7903F13E070E2
:102AD10005EFA2E192B5903F16E07005EFA2E292F8
:102AE100B6903F19E07004EF139297903F1CE0708D
:072AF10005EFA2E49296221A
:10295B00E4FF3097047E0180027E00EE420730B523
:10296B00047E0280027E00EE420730B6047E0480B5
:10297B00027E00EE420730B7047E0880027E00EE36
:0E298B0042073096047E1080027E00EE420766
:01299900221B
:10241100EF14601914601F14602914603314603DB7
:10242100240570497FE312313D78AD803B7FE51291
:10243100313D78858032C293C2927FEE12313D7870
:102441007B8025C293D2927FEE12313D787D801838
:10245100D293C2927FEE12313D787F800BD293D21C
:0E246100927FEE12313D7881A60608A6072272
:10305100AF710571122411E57175F0068485F07167
:01306100224C
:102F8C00E4F549E4FBFDAF49122F5E0549E549C361
:042F9C00941040EF5E
:012FA000220E
:102F5E00AE07C2AF12188DEFF0121932EBF0EF126E
:062F6E00183CEDF0D2AFAB
:012F7400223A
:10278300E4FE789C0612183BE0D394004034789C16
:10279300E6FB700E12188DE0FF7D017C00121FB85E
:1027A3008020EE121932E06B701812188DE0FFE4EE
:1027B300FDFC121FB812183BE0F4600612183BE050
:0827C30014F00EEE641070BD6D
:0127CB0022EB
:0E30CD00E4F5B275B3FF75B5F090E6C3F022DE
:10299A0078A0760C087602087601E408F630B104CD
:1029AA007F0180027F00EF25E025E04463FF30B01D
:1029BA00047E0180027E00EE25E04FF52078A4F621
:0F29CA00E408F608F678ABF6C294C207C2912271
:1026A40090E61274E0F000000090E615F0000000DF
:1026B40090E611F000000090E610E0547FF0000076
:1026C4000090E613E0547FF000000090E614E0541C
:1026D4007FF0000000122FA1122FB690E68374122F
:0C26E400F07432F090E65CE04402F0225A
:0E30DB00E4F521F525F524789DF67884F6229B
:102C0100903F027401F0903F04F0903F03F0903F39
:102C110005F0903F09F0903F0FF0903F08F0903F92
:102C21000EF0903F07F0903F0DF0903F06F0903F7F
:032C31000CF02282
:10260B007F0712314DE478AFF608F6D200C23EC216
:10261B003DC207C2977888761208760208F608F64C
:10262B0008F67896F608F60876FF788D760108F6A8
:10263B0008F63087047FFF80027F007890A607089A
:0D264B007601087601E408F608F608F6228C
:1024C6007F01121DDD123164123145903F017451B6
:1024D600F0903F0B7401F090E600E054E74410F0F2
:1024E600903F801208364C371B00122AF8122A51E8
:1024F6001226A412256B43AF017BFF7A23790012C3
:10250600291B3087097BFF7A23791712291B7F0243
:03251600021DDDC6
:101E9D00303F0F78B2E66573600812305178B2E6C4
:101EAD00F573D3799FE778B29619E718965005C266
:101EBD0041123073A2809202A2B0920378A4A620A0
:101ECD00AE74AF757C037DE81207B6EF78A7F6EE1A
:101EDD0008F6E57508F6E57408F678ACE6C3948067
:101EED0040031228DB30870A90E6F4E020E003126D
:031EFD002ED422BE
:102FA10090E6047480F00000007402F0000000E478
:052FB100F00000002209
:102FB60090E6047480F00000007408F0000000E45D
:052FC600F000000022F4
:103062007F007E007D007C0012234F12260B022976
:013072009AC3
:10256B00E478ACF67F0712314D122FB6122FA178FB
:10257B009B763F7883763FE4789AF6C23DC2B7C22A
:10258B0094C207C2911230DB122C01122F8C7F00E8
:10259B007E007D7A7C441228121230CD12306230CC
:1025AB0087097B507D027F0A122F5E7F0102314D1E
:102AF800E4F5411218DF7D087FF87E1D1225BBE43E
:102B0800F54174402541121827E0FDE54175F002B2
:102B1800A42474F9740135F08982F583EDF0054138
:052B2800E541B408DDE9
:012B2D002285
:06246F008B418A42894303
:10247500E4F544122FE08F45E54525E0240290015F
:1024850092F0E4F544AF45EF3395E0FEC3E5449F94
:10249500EE6480F87480985027AB41AA42A9438521
:1024A5004482758300120743FDE54475F002A424B8
:1024B50094F9740135F08982F583EDF0054480C502
:0124C50022F4
:102A51001218DF7D017F037E001225BB90E740E065
:102A610090010CF090E740E0247F600B0470107B34
:102A7100FF7A237921800E7BFF7A23792F80067BD1
:092A8100FF7A23793C12246F2234
:09313400788A76017F03021DDD9B
:102D1C00EF4E60047F0180027F00788AEFF660043A
:102D2C007F0380027F07121DDD788AE67008121877
:072D3C007970031230F6224A
:1023B0001227831216851230E9788AE66034203EAF
:1023C000177897E6FE18E6FDEDFFD3E5759FE574F7
:1023D0009E401F122FF5801A7897E6FE18E6FDEE54
:1023E000FCE574C313FEE57513D39DEE9C40031208
:1023F0002ED4D5721B78B206E618700106C378B2E7
:10240000E6940A18E694004004E4F608F67572644F
:0124100022A9
:102FCB007B807DFF7F03122F5ED297C2411230822E
:052FDB00C2410230912B
:0B30F600C2977B80E4FD7F03022F5E89
:101DDD00EF1208771DFA011E17021E25031E32048D
:101DED001E5A051E6B061E8D0700001E9C7FFF12DE
:101DFD002AC1E490E6C2F01218797005D241023082
:101E0D0082208503021E9C021E9512187970030212
:101E1D001E9C30857A021E951218797003022FCB05
:101E2D0030856C803512187970028003308560D250
:101E3D004112307378B2E62402FF18E436FE7C00BE
:101E4D007D0A1207B6789EA60408A60522121879F7
:101E5D0070057F0502314D3085357F0180177890F3
:101E6D00E6600B7F007E007DFA7C4412234F121832
:101E7D007970087F0412314DD2B722308511800858
:101E8D00121879600A3085077F0412314DC2B722CE
:102D8F00C0E0C083C082C085C084C086758600D273
:102D9F003A1218B77401F0D086D084D085D082D083
:042DAF0083D0E032BB
:102E1E00C0E0C083C082C085C084C0861218B4745E
:0F2E2E0004F0D086D084D085D082D083D0E0321B
:102E3D00C0E0C083C082C085C084C0861218B4743F
:0F2E4D0002F0D086D084D085D082D083D0E032FE
:102B9900C0E0C083C082C085C084C08675860085B8
:102BA900100C85110D12196E85080E85090F121961
:102BB900791218B77410F0D086D084D085D082D01D
:042BC90083D0E032A3
:102DB300C0E0C083C082C085C084C086758600D24F
:102DC3003C1218B77408F0D086D084D085D082D056
:042DD30083D0E03297
:102A1600C0E0C083C082C085C084C0867586009031
:102A2600E680E030E71285080C85090D12196E85DF
:102A3600100E85110F1219791218B77420F0D0866E
:0B2A4600D084D085D082D083D0E03255
:013173003229
:013174003228
:013175003227
:013176003226
:013177003225
:013178003224
:013179003223
:01317A003222
:01317B003221
:01317C003220
:01317D00321F
:01317E00321E
:01317F00321D
:01318000321C
:01318100321B
:01318200321A
:013183003219
:013184003218
:013185003217
:013186003216
:013187003215
:013188003214
:013189003213
:01318A003212
:01318B003211
:01318C003210
:01318D00320F
:01318E00320E
:01318F00320D
:01319000320C
:01319100320B
:01319200320A
:013193003209
:013194003208
:013195003207
:013196003206
:06285600AB07AA06AC0569
:10285C00E4FD903F0BE0600B7E000DEE248412191A
:10286C0066EAF0AE050D74842E121966EBF0AF0516
:10287C000D74842F121966ECF0903F01E0FF7A3F43
:0D288C007B84122F0D903F01E0FF022B2EE8
:0A2B64008E498F4A8D4B8A4C8B4D31
:102B6E00E4F54EE54EC3954B5020054AE54AAE4975
:102B7E007002054914FFE54D254EF582E4354CF5FE
:0A2B8E0083E0FD122856054E80D9A1
:012B9800221A
:0A25BB008E498F4A8D4B8A4C8B4DE0
:1025C500E4FDF54E903F0BE06012E549FF7E000DFE
:1025D500EE2484F582E4343FF583EFF0AE050D7407
:1025E500842EF582E4343FF583E54AF0903F01E01F
:1025F500FF7A3F7B84122F0D903F01E0FFAB4DAA80
:062605004CAD4B022EF16A
:02316700D32271
:102E980000000090E6247402F0000000E490E625AB
:0E2EA800F000000090E6BAE0903F0AF0D3225E
:0A311600903F0A12186B04F0D32258
:0A31200090E6BAE0903F00F0D322E1
:0A312A00903F0012186B04F0D3224E
:02316900D3226F
:02316B00D3226D
:02316D00D3226B
:02316F00D32269
:02317100D32267
:101BEB0090E6BAE0754100F542A3E0FEEE4241906B
:101BFB00E6BEE0754300F544A3E0FEEE424390E6FB
:101C0B00B8E064C06003021C92E5444543700302D4
:101C1B001CEB90E6A0E020E1F9C3E5449440E543DA
:101C2B0094005008854345854446800675450075EC
:101C3B00464090E6B9E0B4A31EE4F547F548121907
:101C4B000B503812194DE0FF1218BEEFF00548E5A6
:101C5B004870EB054780E7E4F547F54812190B5040
:101C6B00101218BE74CDF00548E54870EF0547809B
:101C7B00EB1218DDAF42AE411225BB121870E546D0
:101C8B00F012189C021C1490E6B8E064407051E509
:101C9B00444543604B121870F090E6A0E020E1F948
:101CAB0090E68BE0754500F54690E6B9E0B4A31ECF
:101CBB00E4F547F54812190B501E1218BEE0FF123F
:101CCB00194DEFF00548E54870EB054780E7121812
:101CDB00DDAF42AE41122B64E54612189C021C9AF2
:011CEB0022D6
:03004300021F0099
:03005300021F0089
:101F0000022D8F00022E3D00022E1E00022DB30076
:101F1000022B9900022A160002317300023174006C
:101F2000023175000231760002317700023178000B
:101F30000231790002317A0002317B0002317C00EB
:101F400002317D000231740002317E0002317F00D7
:101F500002318000023181000231820002318300AF
:101F600002318400023174000231740002317400C5
:101F7000023185000231860002318700023188007B
:101F80000231890002318A0002318B0002318C005B
:101F900002318D0002318E0002318F00023190003B
:101FA000023191000231920002319300023194001B
:081FB000023195000231960098
:022DD7008F412A
:102DD900903F86EDF07A3F7B867D01122F0D7A3F79
:102DE9007B847D02AF41122EF1903F84E0FEA3E087
:012DF900FFDA
:012DFA0022B6
:1029D900AE07C2E990E678E04480F0EE25E090E6A3
:1029E90079F090E678E030E0F9ED90E679F090E65C
:1029F90078E030E0F990E678E04440F090E678E05D
:0D2A090030E0F990E678E020E6F9D2E9220D
:022F7500AC07A7
:102F77001229D97A3F7B877D02122EF1903F87E095
:042F8700FEA3E0FFC6
:012F8B002223
:08313D00AD077F40122DD722DF
:102CC40090E682E030E004E020E60B90E682E0301B
:102CD400E119E030E71590E680E04401F07F147ECE
:0C2CE400001227CC90E680E054FEF022A5
:102D6A0090E682E044C0F090E681F04387010000DB
:042D7A000000002233
:102C950030410990E680E0440AF0800790E680E044
:102CA5004408F07FDC7E051227CC90E65D74FFF0CA
:0F2CB50090E65FF05391EF90E680E054F7F02245
:08314500E4F51BD2E9D2AF2230
:102B2E0090E678E020E6F9C2E990E678E04480F09D
:102B3E00EF25E090E679F090E678E030E0F990E667
:102B4E0078E04440F090E678E020E6F990E678E010
:062B5E0030E1D6D2E922AD
:102C3400A90790E678E020E6F9E51B702390E67892
:102C4400E04480F0E925E090E679F08D16AF03A921
:102C5400077517018A188919E4F51A751B01D3221F
:022C6400C32289
:102BCD00A90790E678E020E6F9E51B702590E678F8
:102BDD00E04480F0E925E0440190E679F08D16AFF0
:102BED0003A9077517018A188919E4F51A751B03CE
:042BFD00D322C322FA
:03004B00021AE3B3
:101AE300C0E0C083C082C085C084C086758600C044
:101AF300D075D000C000C001C002C003C006C0073B
:101B030090E678E030E206751B06021BCD90E6787E
:101B1300E020E10CE51B64026006751B07021BCD88
:101B2300E51B24FE605F14603624FE7003021BBEB7
:101B330024FC7003021BCA24086003021BCDAB17ED
:101B4300AA18A919AF1A051A8F82758300120743C1
:101B530090E679F0E51A65167070751B05806B9039
:101B6300E679E0AB17AA18A919AE1A8E827583001D
:101B7300120782751B02E5166401704E90E678E049
:101B83004420F08045E51624FEB51A0790E678E078
:101B93004420F0E51614B51A0A90E678E04440F0C4
:101BA300751B0090E679E0AB17AA18A919AE1A8E37
:101BB30082758300120782051A800F90E678E0444D
:101BC30040F0751B008003751B005391DFD007D0D5
:101BD30006D003D002D001D000D0D0D086D084D09C
:081BE30085D082D083D0E032EE
:022CF000A90732
:102CF200AE14AF158F828E83A3E064037017AD010B
:102D020019ED7001228F828E83E07C002FFDEC3E54
:092D1200FEAF0580DF7E007F00AA
:012D1B002295
:102EF100122BCDE51B24FA600E146006240770F333
:0C2F0100D322E4F51BD322E4F51BD322FD
:102F0D00122C34E51B24FA600E146006240770F3AE
:0C2F1D00D322E4F51BD322E4F51BD322E1
:1027CC008E418F4290E600E054187012E5422401CD
:1027DC00FFE43541C313F541EF13F542801590E644
:1027EC0000E05418FFBF100BE54225E0F542E5412F
:1027FC0033F541E5421542AE41700215414E60057C
:06280C00122D7E80EE2279
:102D7E007400F58690FDA57C05A3E582458370F968
:012D8E002222
:0B3101002530326258002530345800A1
:02303D00C1428E
:102F4500743FF59A7440F59B74E7F59D74C0F59E42
:092F5500E4227B017A3F7940225D
:05315B00A24192422296
:1026F000204204E4FEFF2290E6A2E020E1F9122F3E
:1027000057122FE0EF2401F54CE43EF54B122F4514
:10271000FFFEC3EF954CE54B6480F8EE6480985063
:102720000F90E67BE090E67CF00FBF00010E80E2A8
:09273000E54C90E68FF0AE4BFF82
:01273900227D
:10291B008B488A49894A204204E4FEFF221229513E
:10292B008E518F5285484E85494F854A50122F57ED
:10293B0012251912295174402FF582743F3EF583ED
:10294B00E4F01226F022AB48AA49A94A122FE02242
:10300900204204E4FEFF22903F40EFF0E4A3F012D7
:0330190026F0227C
:102F2900204204E4FEFF227558FF755931755A0194
:0C2F39008F5B122F57120ADD1226F022C7
:102EB600204204E4FEFF227558FF755931755A0702
:0E2EC6008E5B8F5C122F57120ADD1226F0224F
:1022800090E685E02405F576204204E4FEFF2278FE
:10229000407C3F7D01120A6490E6A2E030E10790A5
:0622A000E685E0B576F2D0
:1022A600122F57122FE0EF2401F57AE43EF579124A
:1022B6002F45F577F578C3E578957AE5796480F862
:1022C600E577648098501290E67BE090E67CF00516
:1022D60078E57870E1057780DDE57A90E68FF0AEF7
:0222E60079FF7E
:0122E80022D3
:1001B20002046DE86480F8E933E83360110460F00A
:1001C200ED33EC337009E8FCE9FDEAFEEBFF2204B3
:1001D20060DED3EB9FEA9EE99DE8C2E78CF0C2F7AE
:1001E20095F0400CE8CCF8E9CDF9EACEFAEBCFFB7A
:1001F20012043885D0F05804700320D5B3E8047097
:10020200075002B2D502047792D5EC0460F7E4CC31
:10021200C0E0C398F8603B94186008400DD0E0FB42
:1002220002044FE4FBFAC9FC8028E830E406E4C982
:10023200FBE4CAFCE830E305E4C9CACBFCE8540796
:100242006010F8C3E913F9EA13FAEB13FBEC13FCA1
:10025200D8F130F52FC3E49CFCEF9BFFEE9AFEED44
:1002620099FDD0E0FBEF4E4D4C701222DB030204ED
:1002720074EC2CFCEF33FFEE33FEED33FDED30E793
:10028200EB02044FEF2BFFEE3AFEED39FDD0E0FB1F
:1002920050130BBB0003020477ED13FDEE13FEEFC8
:0802A20013FFEC13FC02044FF2
:1002AA00020477EC5D046005E85904700302046DEA
:1002BA00120438580460F6EC4860F2EC7004FDFE53
:1002CA00FF22C860DB2481C85009C3986002500627
:1002DA000204749850CAF582E9294B4A7005AB8228
:1002EA0002046375F0007C1A7880C3EF9BEE9AEDE6
:1002FA0099400DC3EF9BFFEE9AFEED99FDE842F09F
:10030A00DC23ACF0D0E0FFD0E0FED0E0FDAB8220F1
:10031A00E7101BEB60BAEC2CFCEF33FFEE33FEED7B
:10032A0033FD02044FE803F830E705C0F075F0002A
:10033A00EF2FFFEE33FEED33FD40B830E7C280AA5F
:10034A0074F8CC6480CCC86480C8F58204604FC35A
:10035A00EB9FF5F0EA9E42F0E99D42F0E89C45F0F9
:10036A00603C501DE5825FFFE582D313CB5BCBF483
:10037A002B5582FB50280ABA002409B900200880AC
:10038A001DE5825BFBE582D313CF5FCFF4C3132F46
:10039A005582FF50090EBE00050DBD00010CC3EBCE
:1003AA009FF5F0EA9E42F0E99D42F0E89C45F06034
:0903BA0007CC4820E701B3EC2256
:1003C30075F020800E75F010800575F0087D007EB5
:1003D300007F003392D530D50312080BEC33401065
:1003E300EF33FFEE33FEED33FDEC33FCD5F0ED22BE
:0E03F300E5F0247EA2D513CC92E7CDCEFF22FA
:10040100EDD2E7CD33EC3392D524814006E4FFFEF3
:10041100FDFC22FCE4CFCECDCC24E0501174FF8052
:10042100EDC3CC13CCCD13CDCE13CECF13CF0470EF
:07043100F030D5DE02080BDC
:100A8100E56C2458F8E6056C227855303702785821
:100A9100E475F00112086702072A2030EB7F2ED29D
:100AA100308018EF540F2490D43440D4FF30340BED
:100AB100EF24BFB41A0050032461FFE56D600215F5
:100AC1006D0570E5707002056F30370D7855E4756E
:100AD100F001120867EF020770022D437403D23749
:100AE1008003E4C237F56C8B558A568957E4F56D5E
:100AF100F56FF570E56D60077F20120ABC80F57512
:100B01006EFFC231C230C232C233C235C236C238C0
:100B1100120A8AFF700D3037057F00120ACDAF70BF
:100B2100AE6F22B4255FC2D5C234120A8AFF24D027
:100B3100B40A00501A75F00A786D30D50508B6FF71
:100B41000106C6A426F620D5047002D23380D9242A
:100B5100CFB41A00EF5004C2E5D234020DBAD2313B
:100B610080C6D23080C0D23280BCD2D580BAD235D4
:100B710080B47F20120ABC2032077401B56D004099
:100B8100F1120A81FF120ABC020AF5D238D236806C
:100B910095120A81FB120A81FA120A81F94A4B70F5
:100BA1000679B17A0E7BFF20322EE56D602A7E0038
:100BB1008E8275830012074360060EEE656E70F03B
:100BC100C2D5EBC0E0EAC0E0E9C0E0EE120E1AD0F7
:100BD100E0F9D0E0FAD0E0FB12072AFF60AAEBC0EF
:100BE100E0EAC0E0E9C0E0120ABCD0E02401F9D09B
:100BF100E03400FAD0E0FBE56E0460DCD56ED9800C
:100C010087D23280A2120DFD60F7E56E70010412E9
:100C11000482A96E600DE56E600914F56E120EA4D2
:100C2100EF60F3EA30E702F404C3995077EAF42560
:100C31006E0430E701E404F56E800D120DFD60C114
:100C4100EA056E256E120482EA786BF630E701E45C
:100C5100256E04D56E0420350114120E1AE4C0E08D
:100C6100120EA4786BE6601320E70714F6120AA4AB
:100C7100802204F6D0E014C0E07F00120AA4E56EE1
:100C81006007120A9B156E800B303503120A9BD048
:100C9100E0020AF5D0E00480C5120DFD60A0E56E0A
:100CA10004120482786BEAF6E56E203502600104D5
:050CB1002404120E1ADC
:100CB60074FF04C0E0120EA4120AA4E56E203502E9
:100CC6006003120A9BD0E0B56EE87F45120AAE7843
:100CD6006BE67F2B30E7047F2DF404C0E0120ABCDC
:100CE600D0E075F00A84C0F0120AA5D0E0120AA579
:100CF600020AF5791080027908C236C2388008D215
:100D0600D5790A8004790AC2D5E56E047002F56EBB
:100D1600E4FAFDFEFF120A81FC7B08203113120A59
:100D260081FD7B1030300A120A81FE120A81FF7B98
:100D360020EC3382D592D55013C3E43030069FFFA2
:100D4600E49EFEE42031039DFDE49CFCE4CBF8C266
:100D560031EC700CCFCECDCCE824F8F870F38017C8
:100D6600C3EF33FFEE33FEED33FDEC33FCEB33FB29
:100D7600994002FB0FD8E9EB303105F8D0E0C448C2
:100D8600B231C0E00AEC4D4E4F78207B0070C2EACB
:100D9600B56E0040BCC0E0120E1CD0F0D0E0203191
:100DA60004C4C0E0C4B231C0F0120AA5D0F0D5F038
:100DB600EB020AF51208770B92530CF9580B634CA9
:100DC6000B5F420CFD4F0D05440D05490B78430D95
:100DD6000B550C3C460C9A450C06470ED1500B673A
:100DE6002D0B6B2E0B8E2B0B6F230B8C200EBA2A22
:100DF6000B274800000B86E56EB4FF03756E0612DE
:100E06000A81FC120A81FD120A81FE120A81FF780C
:100E1600640204B1790AA2D5203314303509B91019
:100E2600020404B9080104A2D520360250010420A8
:100E360032689232B56D005034C0E07F20303319ED
:100E46007F30A23272367235500F120E73C232C222
:100E560036C235C2387F30800F303503E9C0E01224
:100E66000ABC303503D0E0F9D0E0B56DCC3035178B
:100E76007F30B9100C120ABC7F583034077F788057
:100E860003B90803120ABC3032057F2D020ABC7F63
:100E9600202038F87F2B2036F322923280CF7F0035
:100EA600B4070050052464F8E6FF22286E756C6CC2
:100EB6002900D231120A813031F8C231786D30D52D
:100EC6000108F6020B272D50434958120A812403C4
:100ED600B405004001E4900ECC93120AAD743A12A8
:0A0EE6000AADD233756D04020CF959
:10043800E9D2E7C933E833F892D5EDD2E7CD33EC0A
:0704480033FC5002B2D52283
:10044F00EC30E7100FBF000C0EBE00080DBD00040E
:10045F000BEB6014A2D5EB13FCED92E7FD2274FFBA
:10046F00FCFDFEFF22E480F8A2D574FF13FC7D8013
:03047F00E480EF27
:10048200F920E72824F950037907E4F42402FB1841
:10049200DBFDE624FB5014E9600DE4F618E604F6F1
:0F04A200B40A08E4F6D9F57401F60A22C2D5228D
:1004B100ED33EC3392D5FA602AB4FF33EDC2E77B1A
:1004C100FF60067A0479D6E4227A0479DF20D50424
:1004D1007A0479DA224E614E002B494E46002D49AD
:1004E1004E4600E47A08F608DAFC7B00740722E83D
:1004F100C0E0ECC0E0EDC0E0EEC0E0EFC0E0EA75C6
:10050100F010A4CAABF075F04DA42BFBE435F0FC60
:10051100EA2410FAEB34C5FBEC34D9FCEDC2E7FF59
:1005210075F056A4F42411C5F0F434C58FF0A42A53
:10053100E5F03BE43CF620E7141206EAD0E0FFD0F8
:10054100E0FED0E0FDD0E0FC1202AD8014F4041214
:1005510006EAD0E0FFD0E0FED0E0FDD0E0FC1205DD
:10056100B4D0E0F8E6FAEDD2E7CD33EC332482FBE8
:10057100E4C3CF33CFCE33CECD33CD33DBF37B07E3
:1005810075F00A846004F6081B0AE5F0F6088FF09E
:10059100740AA4FFACF08EF0740AA42CFEACF050E7
:1005A100010C8DF0740AA42CFDE435F0F608DBDEB5
:0305B100740722AA
:1005B400EC4D6011E8497017ED33EC3304600DE441
:1005C400FCFFFEFD22E933E8330470F802046D12E7
:1005D400043858046009E4CC2481500628500902E8
:1005E4000477284003020474C0E0EB4A7044B980E5
:1005F40006D0E0FB020463EF4E701CBD8008EBFFE5
:10060400EAFEE9FD80EBE98DF0A4FEE5F002069D2B
:10061400E9CDF9EAFEEBFFEF89F0A4FCE5F0CE8921
:10062400F0A42EFFE435F0CD89F0A42DFEE435F0DE
:100634008067EF4E7005BD80D780C3EF8BF0A4AC0C
:10064400F0EE8BF0A42CFCE435F0F8EF8AF0A42C47
:10065400E5F038FCE433CB8DF0A42CFCE5F03BF85A
:10066400EE8AF0A42CFCE5F038F8E433CF89F0A44A
:100674002CFCE5F038CF3400CE89F0A42FFFE5F050
:100684003EFEE433C98DF0A42EFEE5F039CD8AF0A8
:10069400A42FFFE5F03EFEE43DFD33D0E0FB500720
:1006A4000BBB000F020477EC2CFCEF33FFEE33FEA0
:0606B400ED33FD02044FCE
:1006BA003F8000004120000042C80000447A000048
:1006CA00461C400047C35000497424004B189680CA
:1006DA004CBEBC205A0E1BCA6753C21C749DC5AEC1
:1006EA00FB60065407601C2323120718EB5438607A
:1006FA00091207041207131205B4ECF8EDF9EEFA21
:10070A00EFCB22EB12071380F1543803241C900616
:10071A00BAFE93FC0EEE93FD0EEE930ECE93FF22DD
:0300000002216D6D
:0C216D00787FE4F6D8FD7581B20221B441
:10072A00BB010689828A83E0225002E722BBFE02CD
:09073A00E32289828A83E4932200
:10074300BB010CE58229F582E5833AF583E022506B
:1007530006E92582F8E622BBFE06E92582F8E222B5
:0D076300E58229F582E5833AF583E49322CF
:10077000BB010689828A83F0225002F722BBFE0168
:02078000F32262
:10078200F8BB010DE58229F582E5833AF583E8F0AD
:10079200225006E92582C8F622BBFE05E92582C859
:0207A200F22241
:1007A400EF8DF0A4A8F0CF8CF0A428CE8DF0A42E69
:0207B400FE2223
:1007B600BC000BBE0029EF8DF084FFADF022E4CC27
:1007C600F875F008EF2FFFEE33FEEC33FCEE9DECF0
:1007D600984005FCEE9DFE0FD5F0E9E4CEFD22ED36
:1007E600F8F5F0EE8420D21CFEADF075F008EF2F80
:1007F600FFED33FD4007985006D5F0F222C398FD71
:050806000FD5F0EA220D
:0E080B00C3E49FFFE49EFEE49DFDE49CFC22FE
:10081900EB9FF5F0EA9E42F0E99D42F0E89C45F035
:0108290022AC
:0C082A00E0FCA3E0FDA3E0FEA3E0FF2241
:10083600A8828583F0D083D08212084D12084D120B
:10084600084D12084DE473E493A3C583C5F0C58330
:10085600C8C582C8F0A3C583C5F0C583C8C582C80C
:01086600226F
:10086700FAE6FB0808E6F925F0F618E6CA3AF62292
:10087700D083D082F8E4937012740193700DA3A310
:1008870093F8740193F5828883E473740293686024
:06089700EFA3A3A380DF24
:10089D00D083D082F8E4937012740193700DA3A3EA
:1008AD0093F8740193F5828883E473740293B5F021
:0D08BD00067403936860E9A3A3A3A380D889
:102D4300EFB40A07740D122D4E740A309811A89926
:102D5300B8130CC2983098FDA899C298B811F630F0
:072D630099FDC299F59922C8
:102519008B4B8A4C894DE4F553F554E5521552AE6F
:1025290051700215514E6033AB4EAA4FA950120794
:102539002AFFAB4BAA4CA94D0554E554AC53700284
:10254900055314F5828C83EF120782EF60CD740175
:102559002550F550E4354FF54F80C0AB4BAA4CA937
:022569004D2201
:102FE000E4FFFE12072A600C0FEF70010E09E97072
:052FF000F20A80EF224F
:1008CA00E709F608DFFA8046E709F208DFFA803E10
:1008DA0088828C83E709F0A3DFFA8032E309F608FD
:1008EA00DFFA806EE309F208DFFA806688828C8379
:1008FA00E309F0A3DFFA805A89828A83E0A3F60823
:10090A00DFFA804E89828A83E0A3F208DFFA804206
:10091A0080D280FA80C680D4805580F280298010E7
:10092A0080A680EA809A80A880DA80E280CA80293C
:10093A0088848C8589828A83E493A30586F0A3053B
:10094A0086DFF5DEF3800B89828A83E493A3F608B7
:10095A00DFF9ECFAA9F0EDFB2288848C8589828A7A
:10096A0083E0A30586F0A30586DFF6DEF480E3893B
:10097A00828A83E493A3F208DFF980D688F0EF60D5
:10098A00010E4E60CD88F0ED2402B4040050C3F588
:10099A0082EB2402B4040050B92323458223900930
:0209AA001A73BE
:1009AC00E709F60870FA8046E709F20870FA803E0B
:1009BC0088828C83E709F0A370FA8074E309F60847
:1009CC0070FA806CE309F20870FA806488828C8378
:1009DC00E309F0A370FA805889828A83E0A3F608B1
:1009EC0070FA804C89828A83E0A3F20870FA804006
:1009FC0080D280FA80C680D4805180F2802780100B
:100A0C0080A680EA809A80A880DA80E280CA80275B
:100A1C0088848C8589828A83E493A30586F0A30558
:100A2C008670F5800B89828A83E493A3F60870F9AB
:100A3C00ECFAA9F0EDFB2288848C8589828A83E00C
:100A4C00A30586F0A3058670F680E589828A83E487
:100A5C0093A3F20870F980D888F0ED2402B4040056
:100A6C0050CEF582EB2402B4040050C423234582FB
:050A7C00239009FC734A
:10217900021998E493A3F8E493A34003F68001F2CB
:1021890008DFF48029E493A3F85407240CC8C33367
:10219900C4540F4420C8834004F456800146F6DF36
:1021A900E4800B010204081020408090302EE47E68
:1021B900019360BCA3FF543F30E509541FFEE4932B
:1021C900A360010ECF54C025E060A840B8E493A3F2
:1021D900FAE493A3F8E493A3C8C582C8CAC583CA1D
:1021E900F0A3C8C582C8CAC583CADFE9DEE780BED5
:01303F000090
:00000001FF
