:10010200120100020000004005168080000001027A
:020112000001EA
:0A0116000A0600020000004001008C
:100122000902270001010080320904000003FF00D8
:10013200000007058102400000070582020002005C
:07014200070588020002001E
:10014A000902270001010080320904000003FF00B0
:10015A0000000705810240000007058202400000F6
:07016A0007058802400000B8
:100172001403000000000000000000000000000066
:10018200000000000C0341004300430045005300FF
:100192001E035700410054004300480044004F0032
:1001A2004700000000000000000000000000000006
:0A3112000001020203030404050596
:10008000EC4EFEED4F2412F58274313EF583E4937D
:10009000FF3395E0FEEF24A1FFEE34E68F82F58377
:1000A0002290E6BCE0547EFF7E00E0D394807C008A
:1000B00022F0E52C2401FFE4352BFEE4352AFDE493
:1000C00035298F2C8E2B8D2AF52922AF30AE2FADFE
:1000D0002EAC2DAB2CAA2BA92AA829C3020819E5FE
:0C00E00036252CF582E535352BF5832202
:10199800E4F534F533F532F531C23CC239C23BC205
:1019A8003A1224F57E017F028E0A8F0B751201759B
:1019B800131675080175092275100175114A7514F9
:1019C80001751572EE54E07003021A8475350075BE
:1019D80036808E378F38C374B09FFF74019ECF2432
:1019E80002CF3400FEE48F308E2FF52EF52DF52C26
:1019F800F52BF52AF5291200CB500A1200DF74CD19
:101A08001200B180F1E4F52CF52BF52AF529120026
:101A1800CB5017E538252CF582E537352BF583E0D3
:101A2800FF1200DFEF1200B180E485350A85360B1E
:101A380074022480FF740134FFFEC3E5139FF5137D
:101A4800E5129EF512C3E50D9FF50DE50C9EF50C0C
:101A5800C3E50F9FF50FE50E9EF50EC3E5099FF54B
:101A680009E5089EF508C3E5119FF511E5109EF5F7
:101A780010C3E5159FF515E5149EF514D2E843D873
:101A88002090E668E04409F090E65CE0443DF0D23E
:101A9800AFD241122C7390E680E054F7F0538EF8E1
:101AA800C23C303A05121359C23A303C29123175FA
:101AB8005024C23C122D7020391690E682E030E79F
:101AC80004E020E1EF90E682E030E604E020E0E484
:0B1AD800122CA212317712205180C79F
:1013590090E6B9E012087713FD0014510114AB03AC
:10136900137C0613F70813F10913E50A13EB0B00B5
:101379000014E212316D40030214EE90E6BBE02442
:10138900FE602214603324FD60111460222406706B
:1013990048E50A90E6B3F0E50B8037E51290E6B32D
:1013A900F0E513802DE50C90E6B3F0E50D8023E51B
:1013B9000E90E6B3F0E50F801990E6BAE0FF122C23
:1013C900CEAA06A9077B01EA494B600DEE90E6B368
:1013D900F0EF90E6B4F00214EE0214E71231300295
:1013E90014EE1231260214EE122E9E0214EE123160
:1013F9001C0214EE12316F40030214EE90E6B8E0BD
:10140900247F60151460192402703AA239E4332547
:10141900E0FFA23BE4334F8018E490E740F08016E8
:101429001200A140047D0180027D00120080E05479
:101439000190E740F0E4A3F090E68AF090E68B741F
:1014490002F00214EE0214E712317140030214EEA5
:1014590090E6B8E024FE6016240260030214EE90C0
:10146900E6BAE0B40105C2390214EE0214E790E6C7
:10147900BAE0702C1200A140047D0180027D0012A7
:101489000080E054FEF090E6BCE05480131313543E
:101499001FFFE0540F2F90E683F0E04420F08045D1
:1014A900803C123173503E90E6B8E024FE601A2465
:1014B90002703290E6BAE0B40104D239802790E68E
:1014C900BAE0B40202801E80151200A140047D0119
:1014D90080027D0012008080081220E1500790E60A
:0C14E900A0E04401F090E6A0E04480F098
:0114F50022D4
:0300330002316631
:0431660053D8EF3219
:102E0100E4FFFE7D807C471201B5020401E4FBFA78
:102E1100903F8012082A0202ADE6FE08E6F58BEE2D
:032E2100F58D220A
:1023DF008F448E438D428C41E4FFFEFDFCAB44AA3B
:0F23EF0043A942A84174E012034C7003C28E222E
:1023FE00E589540F4410F589538EEF7940784112D8
:10240E002E0EAB44AA43A942A8411202AD8F488EAC
:10241E00478D468C45AB48AA47A946A845122E01C2
:10242E0078A7A60608A607C28E18122E1AD2ABD20D
:01243E008E0F
:01243F00227A
:0827AC008F448E438D428C41E5
:1027B40079807840122E0EAB44AA43A942A8411254
:1027C40002ADAB07AA06A905A804122E01AD07ACF9
:1027D40006E4F5C8438E20AF04ECF5CB8FCDAF05EE
:0B27E400EDF5CA8FCCD2BDD2ADD2CA39
:0127EF0022C7
:03001B00022E6250
:102E6200C0E0C0D075D000C000C00678A7122E1AEC
:0E2E7200A291B39291D006D000D0D0D0E03221
:03002B000227F0B9
:1027F000C0E0C0F0C083C082C085C084C08675863A
:1028000000C0D075D000C000C003C004C005C00621
:10281000C007122CFAC2CFD007D006D005D004D002
:1028200003D000D0D0D086D084D085D082D083D0C1
:04283000F0D0E032D2
:10237900456E61626C652041444300446973616242
:102389006C65204144430041434345532050434930
:10239900652D5744472D43534D41204331002D535B
:1023A9003031204D6F646500504349652D574447CE
:1023B9002D43534D4100504349652D5744472D4303
:1023C900534D00414343455320504349652D5744DC
:0623D900472D3F3F3F00CD
:0F303400C13FC13D0190FFC13E011C00011D6461
:10180F00E6FF7843E475F001120867EF020770E610
:10181F00FFAE3F053F74402EF582E434E7F5832297
:10182F001207707843E475F001020867EE75F00354
:10183F00A42410F582E4343FF5832290E6BDE0FE48
:10184F0090E6BCE02400FDEC3EFC90E6BFE0FE908D
:10185F00E6BEE07A002400FBEA3EFA22E090E74081
:10186F00F0E490E68AF090E68B22E5801313543F64
:10187F00227D017B007A00797C7E00020986EE755D
:10188F00F003A42412F582E4343FF58322253AF5C0
:10189F003AE53D3539F539C3E53C953EF53CE53B39
:1018AF00953DF53B227586005391EF90E65D2274CE
:1018BF00402540F58274E7353FF58322C2AFAE3D38
:1018CF00AF3E787C7C00FD7B017AE7794022AD3E0C
:1018DF007AE779407F40AB072290E6BBE0FE90E6C7
:1018EF00BAE07C002400FFEC3EFE227D017B007AF3
:1018FF000079947E0012098690E74022C3E5409557
:10190F003EE53F953D227C037DE81207A4EF788AE0
:10191F00F6EE08F622E490E68AF090E6BEE090E656
:10192F008BF02275F003A42411F582E4343FF58384
:10193F002290E68AE53EF090E68BE53DF022E53A0F
:10194F002540F582E539353FF5832274002539F9B5
:10195F00EE34FCFA7B0122F582E4343FF5832285D5
:10196F000D82850C83A37402F022850F82850E836E
:10197F00A37407F022D3E53E9400E53D940022D3F3
:09198F00E53E9400E53D940022C0
:0F30790090E6C2E02041044402F02254FDF02210
:0F30880090E6C2E02041044401F02254FEF02201
:0F30970090E6C2E02041044404F02254FBF022F2
:0F30A60090E6C2E02040044402F02254FDF022E4
:0F30B50090E6C2E02040044401F02254FEF022D5
:0F30C40090E6C2E02040044404F02254FBF022C6
:07315300EFF490E6C2F02248
:03316A00D29522D9
:1000EC00D295E4FFFE000FBF00010EBE04F7BFB0B7
:0300FC00F4C295B6
:0100FF0022DE
:062877008B428A438944F4
:10287D008B458A4689477845121834E5231207702F
:10288D0090E685E0FF7845121834EF12077090E658
:10289D0084E0FF7845121834EF120770784512184E
:0B28AD0034ED120770C3E5479544FFAF
:0128B80022FD
:062289008B408A418942EE
:10228F008B438A448945121832E52312182FE52211
:10229F0012182FE52112182FE52512077078A212B8
:1022AF00180F78A112180F787A12180F7879121860
:1022BF000F787012180F786F12180F787212180F9C
:1022CF00787112180F787412180F787312180F781C
:1022DF007612180F787512180F121832E52412079C
:1022EF0070787B12180F788F12180F789112180FC1
:1022FF00787712180F787812180FC3E5459542FFBB
:01230F0022AB
:0528B900E5AA30E63A3B
:1028BE007539017E0012195A78A0E6FD122877EFBD
:1028CE002539F539E478A0F612195A122289EF2526
:1028DE0039F539E4787BF6F52490FC00E539F09073
:0A28EE00E69C7402F0E490E69DF011
:0128F80022BD
:07315A00EF448078A0F6228B
:072C4400AD07E5AA30E0270F
:102C4B007541017E0074002541F9EE34F0FA7B01E9
:102C5B00122877EF2541F54190F000F090E6907443
:072C6B0002F0E490E691F095
:012C7200223F
:102FFB00200710D207D23EC2007F01122C447F055E
:04300B00121DDD2293
:102EDA00203D19D23DD294788CE6FBF460077D013F
:0D2EEA007F0B122F64D2077F06121DDD2220
:102A6800EF30E505903F02EDF0EF30E405903F03CD
:102A7800EDF0EF30E305903F09EDF0EF30E205901F
:102A88003F08EDF0EF30E105903F07EDF0EF30E063
:072A980005903F06EDF0225E
:101E9D008F417440C3954150047F408002AF41EFA4
:101EAD00C3941F500F7440C3954150047F4080066A
:101EBD00AF4180027F1F8F41E541C3941F501778BA
:101ECD00407CE77F0E121880784D7CE77F0A121850
:101EDD00FA7418F0801578417CE77F12121880781B
:101EED00537CE77F0C1218FA741FF0121870E5413D
:021EFD00F022D1
:1014F6008E398F3A8C3B8D3C8A3D8B3E90E6B8E028
:1015060030E70302167A123022121984404D12195E
:101516002490E6A0E020E1F9E53E6412453D70081E
:101526001218CB1209868029E53E640E453D6003FC
:0315360002168416
:101539001218CB120986787D76027880E6FE18E6C5
:10154900FDEEF53FEDF540FF1219150876FFD2AF14
:06155900787EE6FF7E0033
:10155F00805BE53C853BF012089D15D3000115F526
:10156F00000215B8004415BF004515A8004915AD78
:10157F00004A15A5005215C5005415CC005515B2DB
:10158F00006915B5006A15F88000161680011666F9
:10159F00800200001684023068E4FF022C447F02B0
:1015AF0002315A022FA7022FBCAF3AAE39022D22B9
:1015BF00E53A788CF622AF3AAE39023046AF3AAE02
:1015CF0039022E80308703021684E539453A24FF0D
:1015DF00B39295E53A453970047F0180027F00EFA1
:1015EF0024FFB3923F2202259AE4FBFD7F08122FBE
:1015FF00647F007E007D007C001223DF308705C2F0
:10160F0090C29122C29122308733E539700EC29178
:10161F00FBFD7F08122F64C291C29022E539FFBFF4
:10162F000105308613800CEF64027049E53AC394CC
:10163F00805005C290D29122C291D29022E539FFFB
:10164F00BFFF09E53AFB7DFF7F08801CAC39AD3A3F
:10165F00E41203C80223DFC3E539948040047F09F5
:10166F0080027F0A7B507D02022F6412198440058D
:06167F00AF3E121E9D2289
:101CEC008F398D3A8B3B90E6B8E030E703021D80CC
:101CFC00E53D7074E53E7070E53C7F00FEEF253BE2
:101D0C00FFE43EFEEF8EF012089D1D5200001D57A1
:101D1C0000011D6101001D6101011D6101021D61B8
:101D2C0001031D6101041D6101051D6101061D6199
:101D3C0001071D6101081D6101091D61010A1D6A70
:101D4C00FFFF00001DDCAF39022A9FE539FD7C0046
:101D5C00AF3A02216FAB39AD3AAF3B022F64E53A93
:101D6C00606EAD39FF022A6812194090E6A0E0308F
:0B1D7C00E15E80F7E53DD39400405588
:101D8700753F017440253FF9E434E7FA7B017DFF95
:101D9700122877EF253FF53F2440F9E434E7FA7B33
:101DA70001122289EF253FF53FE4787BF6F524E51C
:101DB7003BB4010C122939AE3F053F121824EFF04E
:101DC70090E740E53FF0121940E53A7008E539B46D
:051DD70001031230E1E0
:011DDC0022E4
:1020E10090E6B9E0120877210A10210A1121274050
:1020F1002166A22166A3213AD4214DD52154D621AE
:1021010059D72161D80000216B90E6BAE0FFA3E026
:10211100FDA3E0FBA3E0F53CA3E0F53DA3E0F53E24
:10212100121CEC02216D1218E8C006C00712184AF1
:10213100D007D0061214F680331218E8C006C00783
:1021410012184AD007D006120EF080207F01122CFF
:102151004480081228B98003122687123022800C8D
:0E216100122D708007121BEB8002D322C322C6
:100EF0008E398F3A8C3B8D3C8A3D8B3E90E6B8E034
:100F000030E7030210B012198E400A12192490E63D
:100F1000A0E020E1F9E53A8539F012089D0F9D0027
:100F200001101300A00FDE00B00FA900D010420185
:100F3000A0103C01A1103601A2103001A3102A011B
:100F4000A4102401A5101E01A6101801A7100D0160
:100F5000B0100701B1100101B20FFB01B30FF50191
:100F6000B40FEF01B50FE901B60FE301B70FD801D8
:100F7000D00FD201D10FCC01D20FC601D30FC001C7
:100F8000D40FBA01D50FB401D60FAE01D71048FF68
:100F9000001080FF0110A2FF0200001358E53C542E
:100FA0000175F011A490E6C2F0E53CF5B022E53CF5
:100FB0001392B722E53C1392B622E53C1392B52278
:100FC000E53C1392B422E53C1392B322E53C139224
:100FD000B222E53C1392B122E53C1392B022E53CEB
:100FE000F59022E53C13929722E53C13929622E578
:100FF0003C13929522E53C13929422E53C13929384
:1010000022E53C13929222E53C13929122E53C1397
:10101000929022E53CF58022E53C13928722E53C44
:1010200013928622E53C13928522E53C139284229A
:10103000E53C13928322E53C13928222E53C139215
:101040008122E53C1392802212198E50030213581C
:10105000AE3DAF3E7C007D031207B6ED4C6003024F
:101060001358D3E53E9430E53D94004003021358F5
:10107000AE3DAF3E78107C3F7D011218D602098646
:10108000AF3CE53CBF010D1200ECD23F7BFF7A2361
:101090007979800B12316AC23F7BFF7A237984020F
:1010A00028F9AF3CBF0103D38001C39241023161F3
:1010B000E53A8539F012089D13320002134B000304
:1010C000124800A011C000B0113800D012C001A019
:1010D00012B001A112A001A2129001A3128001A4DA
:1010E000127001A5126001A6125001A7123801B0BA
:1010F000122801B1121801B2120801B311F801B49B
:1011000011E801B511D801B611C801B711B001D06D
:1011100011A001D1119001D2118001D3117001D41D
:10112000116001D5115001D6114001D712D0FF0036
:1011300012E6FF010000135890E740E5B00213519A
:1011400030B7047F0180027F0090E740EF02135127
:1011500030B6047F0180027F0090E740EF02135118
:1011600030B5047F0180027F0090E740EF02135109
:1011700030B4047F0180027F0090E740EF021351FA
:1011800030B3047F0180027F0090E740EF021351EB
:1011900030B2047F0180027F0090E740EF021351DC
:1011A00030B1047F0180027F0090E740EF021351CD
:1011B00030B0047F0180027F0090E740EF021351BE
:1011C00090E740E5900213513097047F0180027F41
:1011D0000090E740EF0213513096047F0180027FB8
:1011E0000090E740EF0213513095047F0180027FA9
:1011F0000090E740EF0213513094047F0180027F9A
:101200000090E740EF0213513093047F0180027F8A
:101210000090E740EF0213513092047F0180027F7B
:101220000090E740EF0213513091047F0180027F6C
:101230000090E740EF0213513090047F0180027F5D
:101240000090E740EF02135190E740E58002135110
:101250003087047F0180027F0090E740EF02135146
:101260003086047F0180027F0090E740EF02135137
:101270003085047F0180027F0090E740EF02135128
:101280003084047F0180027F0090E740EF02135119
:101290003083047F0180027F0090E740EF0213510A
:1012A0003082047F0180027F0090E740EF021351FB
:1012B0003081047F0180027F0090E740EF021351EC
:1012C0003080047F0180027F0090E740EF021351DD
:1012D000AE3DAF3E78407CE77D017B017A3F7910DF
:0612E0001209860213440E
:1012E600E4F53F78A5E6FE08E6FDAC3F053F744011
:1012F6002C121827EDF0EE12181FEFF0789B12183B
:101306001EEFF00812181EEFF0121820E51FF0E588
:101316001E12181FEFF0D3E53F953EE4953D4004BD
:0C132600AF3F8002AF3E90E68BEFF0225C
:1013320090E6F4E020E1047F0180027F0090E74024
:10134200EFF090E68BE53EF02212187990E740F03C
:0713520090E68B7401F0220C
:10302200C2AFE4F51EF51FD2AFC23DD2007F04024B
:023032001DDDA2
:0D30EF00C2AF051FE51F7002051ED2AF2203
:102E8000AB07AA06C2AF7C037DE81207B6EF787FD6
:0E2E9000F6EE08F6EB788AF6EA08F6D2AF22E4
:10304600AA06C2AFEF787FF6EA08F6121915D2AFD4
:013056002257
:10168500AF23E5805403C454F0FEE5B0540F4EF586
:1016950023E5236F787B46F6A21B301301B3502553
:1016A500903F0FE014F0E07024A21B301301B372D9
:1016B500239223A21B9213A213720B920BA22BA0AF
:1016C50013922B8000903F09E0903F0FF0A21A3053
:1016D5001201B35025903F0EE014F0E07024A21AD9
:1016E500301201B372229222A21A9212A212720A27
:1016F500920AA22AA012922A8000903F08E0903F09
:101705000EF0A219301101B35025903F0DE014F0F1
:10171500E07024A219301101B372219221A219920D
:1017250011A21172099209A229A011922980009093
:101735003F07E0903F0DF0A218301001B3502590FF
:101745003F0CE014F0E07024A218301001B37220B1
:101755009220A2189210A21072089208A228A01036
:1017650092288000903F06E0903F0CF0A21D3015B6
:1017750001B35025903F05E014F0E07024A21D3020
:101785001501B372259225A21D9215A215720D920F
:101795000DA22DA015922D8000903F03E0903F05EE
:1017A500F0A21C301401B35025903F04E014F0E082
:1017B5007024A21C301401B372249224A21C92142A
:1017C500A214720C920CA22CA014922C8000903FB3
:1017D50002E0903F04F0788FE65524552278914633
:1017E500F67877E65524FFE522F45F0846F6788E0D
:1017F500E6F4552460057F0212315A787BE66005D0
:091805007F0212315A788EA624EC
:01180E0022B7
:10216F00EF12087721980021A00121A80221B003C6
:10217F0021B80421EE0521E30621D80721C008214B
:10218F00C80921D00A000021F9EC4D24FF92B78035
:10219F005BEC4D24FF92B58053EC4D24FF92B6803B
:1021AF004BEC4D24FF92978043EC4D24FF92968089
:1021BF003BEC4D24FF92918033EC4D24FF929380A2
:1021CF002BEC4D24FF92928023EC4D24FF92411271
:1021DF0030798018EC4D24FF9241123088800DEC3D
:0E21EF004D24FF92411230978002C322D3226A
:101FB800EF1208771FE4001FEC011FF4021FFC0357
:101FC800200404203A05202F06202407200C08208E
:101FD8001409201C0A20450B0000204DEC4D24FF5D
:101FE80092B78063EC4D24FF92B5805BEC4D24FFE3
:101FF80092B68053EC4D24FF9297804BEC4D24FF12
:1020080092968043EC4D24FF9291803BEC4D24FF47
:1020180092938033EC4D24FF9292802BEC4D24FF59
:1020280092401230A68020EC4D24FF92401230B529
:102038008015EC4D24FF92401230C4800AEC4D24E8
:09204800FF92948002C322D3220E
:102A9F00903F10E07005EFA2E392B7903F13E07004
:102AAF0005EFA2E192B5903F16E07005EFA2E2921A
:102ABF00B6903F19E07004EF139297903F1CE070AF
:072ACF0005EFA2E49296223C
:10293900E4FF3097047E0180027E00EE420730B545
:10294900047E0280027E00EE420730B6047E0480D7
:10295900027E00EE420730B7047E0880027E00EE58
:0E29690042073096047E1080027E00EE420788
:01297700223D
:10244000EF14601914601F14602914603314603D88
:10245000240570497FE312314378A1803B7FE51268
:10246000314378798032C293C2927FEE1231437841
:102470006F8025C293D2927FEE123143787180181B
:10248000D293C2927FEE1231437873800BD293D2F3
:0E249000927FEE1231437875A60608A6072249
:10305700AF1C051C122440E51C75F0068485F01C86
:013067002246
:102F9200E4F541E4FBFDAF41122F640541E541C375
:042FA200941040EF58
:012FA6002208
:102F6400AE07C2AF12188DEFF0121932EBF0EF1268
:062F7400183CEDF0D2AFA5
:012F7A002234
:10271D00E4FE78900612183BE0D394004034789094
:10272D00E6FB700E12188DE0FF7D017C00121FB8C4
:10273D008020EE121932E06B701812188DE0FFE454
:10274D00FDFC121FB812183BE0F4600612183BE0B6
:08275D0014F00EEE641070BDD3
:012765002251
:0E30D300E4F5B275B3FF75B5F090E6C3F022D8
:102978007894760C087602087601E408F630B104FB
:102988007F0180027F00EF25E025E04463FF30B03F
:10299800047E0180027E00EE25E04FF5207898F64F
:0F29A800E408F608F6789FF6C294C207C291229F
:1026870090E61274E0F000000090E615F0000000FC
:1026970090E611F000000090E610E0547FF0000093
:1026A7000090E613E0547FF000000090E614E05439
:1026B7007FF0000000122FA7122FBC90E683741240
:0C26C700F07432F090E65CE04402F02277
:0E30E100E4F521F525F5247891F67878F622AD
:102BDF00903F027401F0903F04F0903F03F0903F5C
:102BEF0005F0903F09F0903F0FF0903F08F0903FB5
:102BFF000EF0903F07F0903F0DF0903F06F0903FA2
:032C0F000CF022A4
:10263A007F07123153E478A3F608F6D200C23EC2ED
:10264A003DC207C297787C761208760208F608F629
:10265A0008F6788AF608F60876FF7881760108F691
:10266A0008F63087047FFF80027F007884A6070877
:0D267A007601087601E408F608F608F6225D
:1024F5007F01121DDD12316A12314B903F0174517B
:10250500F0903F0B7401F090E600E054E74410F0C2
:10251500903F801208364C371B00122AD6122A2FFC
:1025250012268712259A43AF017BFF7A23799012F1
:1025350028F93087097BFF7A2379A71228F97F02CA
:03254500021DDD97
:10205100D37993E778A69619E718965005C24112ED
:102061003079787EE66034203E17788BE6FE18E6FC
:10207100FDEDFFD3E51F9FE51E9E401F122FFB8044
:102081001A788BE6FE18E6FDEEFCE51EC313FEE5AD
:102091001F13D39DEE9C4003122EDAA2809202A25E
:1020A100B092037898A620AE1EAF1F7C037DE81284
:1020B10007B6EF789BF6EE08F6E51F08F6E51E0871
:1020C100F678A0E6C3948040031228B930870A90BD
:1020D100E6F4E020E003122EDA303F0312305722FB
:102FA70090E6047480F00000007402F0000000E472
:052FB700F00000002203
:102FBC0090E6047480F00000007408F0000000E457
:052FCC00F000000022EE
:103068007F007E007D007C001223DF12263A0229B1
:0130780078DF
:10259A00E478A0F67F07123153122FBC122FA778C6
:1025AA008F763F7877763FE4788EF6C23DC2B7C21F
:1025BA0094C207C2911230E1122BDF122F927F00D0
:1025CA007E007D7A7C441227AC1230D312306830F8
:1025DA0087097B507D027F0A122F647F01023153E3
:102AD600E4F5391218DF7D087FF87E1D1225EAE439
:102AE600F53974402539121827E0FDE53975F002ED
:102AF600A42474F9740135F08982F583EDF0053963
:052B0600E539B408DD13
:012B0B0022A7
:06249E008B398A3A893BEC
:1024A400E4F53C122FE68F3DE53D25E02402900142
:1024B40092F0E4F53CAF3DEF3395E0FEC3E53C9F7D
:1024C400EE6480F87480985027AB39AA3AA93B850A
:1024D4003C82758300120743FDE53C75F002A42499
:1024E40094F9740135F08982F583EDF0053C80C5DB
:0124F40022C5
:102A2F001218DF7D017F037E001225EA90E740E058
:102A3F0090010CF090E740E0247F600B0470107B56
:102A4F00FF7A2379B1800E7BFF7A2379BF80067BD3
:092A5F00FF7A2379CC12249E2297
:09313A00787E76017F03021DDDA1
:102D2200EF4E60047F0180027F00787EEFF6600440
:102D32007F0380027F07121DDD787EE6700812187D
:072D42007970031230FC223E
:102CFA0012271D1216851230EFD51D1B78A606E67F
:102D0A0018700106C378A6E6940A18E694004004EF
:072D1A00E4F608F6751D64E4
:012D2100228F
:102FD1007B807DFF7F03122F64D297C2411230881C
:052FE100C2410230971F
:0B30FC00C2977B80E4FD7F03022F647D
:101DDD00EF1208771DFA011E17021E25031E32048D
:101DED001E5A051E6B061E8D0700001E9C7FFF12DE
:101DFD002A9FE490E6C2F01218797005D2410230A4
:101E0D0088208503021E9C021E951218797003020C
:101E1D001E9C30857A021E951218797003022FD1FF
:101E2D0030856C803512187970028003308560D250
:101E3D004112307978A6E62402FF18E436FE7C00C4
:101E4D007D0A1207B67892A60408A6052212187903
:101E5D0070057F050231533085357F0180177884F9
:101E6D00E6600B7F007E007DFA7C441223DF1218A2
:101E7D007970087F04123153D2B722308511800852
:101E8D00121879600A3085077F04123153C2B722C8
:102D9500C0E0C083C082C085C084C086758600D26D
:102DA5003A1218B77401F0D086D084D085D082D07D
:042DB50083D0E032B5
:102E2400C0E0C083C082C085C084C0861218B47458
:0F2E340004F0D086D084D085D082D083D0E03215
:102E4300C0E0C083C082C085C084C0861218B47439
:0F2E530002F0D086D084D085D082D083D0E032F8
:102B7700C0E0C083C082C085C084C08675860085DA
:102B8700100C85110D12196E85080E85090F121983
:102B9700791218B77410F0D086D084D085D082D03F
:042BA70083D0E032C5
:102DB900C0E0C083C082C085C084C086758600D249
:102DC9003C1218B77408F0D086D084D085D082D050
:042DD90083D0E03291
:1029F400C0E0C083C082C085C084C0867586009054
:102A0400E680E030E71285080C85090D12196E8501
:102A1400100E85110F1219791218B77420F0D08690
:0B2A2400D084D085D082D083D0E03277
:011EFF0032B0
:013179003223
:01317A003222
:01317B003221
:01317C003220
:01317D00321F
:01317E00321E
:01317F00321D
:01318000321C
:01318100321B
:01318200321A
:013183003219
:013184003218
:013185003217
:013186003216
:013187003215
:013188003214
:013189003213
:01318A003212
:01318B003211
:01318C003210
:01318D00320F
:01318E00320E
:01318F00320D
:01319000320C
:01319100320B
:01319200320A
:013193003209
:013194003208
:013195003207
:013196003206
:013197003205
:013198003204
:013199003203
:01319A003202
:01319B003201
:06283400AB07AA06AC058B
:10283A00E4FD903F0BE0600B7E000DEE2487121939
:10284A0066EAF0AE050D74872E121966EBF0AF0535
:10285A000D74872F121966ECF0903F01E0FF7A3F62
:0D286A007B87122F13903F01E0FF022B0C23
:0A2B42008E418F428D438A448B457B
:102B4C00E4F546E546C3954350200542E542AE41C7
:102B5C007002054114FFE5452546F582E43544F540
:0A2B6C0083E0FD122834054680D9ED
:012B7600223C
:0A25EA008E418F428D438A448B45D9
:1025F400E4FDF546903F0BE06012E541FF7E000DDF
:10260400EE2487F582E4343FF583EFF0AE050D74D4
:10261400872EF582E4343FF583E542F0903F01E0F4
:10262400FF7A3F7B87122F13903F01E0FFAB45AA4F
:0626340044AD43022EF745
:02316D00D3226B
:102E9E0000000090E6247402F0000000E490E625A5
:0E2EAE00F000000090E6BAE0903F0AF0D32258
:0A311C00903F0A12186B04F0D32252
:0A31260090E6BAE0903F00F0D322DB
:0A313000903F0012186B04F0D32248
:02316F00D32269
:02317100D32267
:02317300D32265
:02317500D32263
:02317700D32261
:101BEB0090E6BAE0753900F53AA3E0FEEE42399083
:101BFB00E6BEE0753B00F53CA3E0FEEE423B90E613
:101C0B00B8E064C06003021C92E53C453B700302E4
:101C1B001CEB90E6A0E020E1F9C3E53C9440E53BEA
:101C2B0094005008853B3D853C3E8006753D007514
:101C3B003E4090E6B9E0B4A31EE4F53FF54012191F
:101C4B000B503812194DE0FF1218BEEFF00540E5AE
:101C5B004070EB053F80E7E4F53FF54012190B5060
:101C6B00101218BE74CDF00540E54070EF053F80B3
:101C7B00EB1218DDAF3AAE391225EA121870E53EB9
:101C8B00F012189C021C1490E6B8E064407051E509
:101C9B003C453B604B121870F090E6A0E020E1F958
:101CAB0090E68BE0753D00F53E90E6B9E0B4A31EDF
:101CBB00E4F53FF54012190B501E1218BEE0FF124F
:101CCB00194DEFF00540E54070EB053F80E712182A
:101CDB00DDAF3AAE39122B42E53E12189C021C9A2C
:011CEB0022D6
:03004300021F0099
:03005300021F0089
:101F0000022D9500022E4300022E2400022DB9005E
:101F1000022B77000229F400021EFF000231790033
:101F200002317A0002317B0002317C0002317D00F7
:101F300002317E0002317F000231800002318100D7
:101F400002318200023179000231830002318400C3
:101F5000023185000231860002318700023188009B
:101F600002318900023179000231790002317900B1
:101F700002318A0002318B0002318C0002318D0067
:101F800002318E0002318F00023190000231910047
:101F90000231920002319300023194000231950027
:101FA0000231960002319700023198000231990007
:081FB00002319A0002319B008E
:022DDD008F6EF7
:102DDF00903F86EDF07A3F7B867D01122F137A3F6D
:102DEF007B847D02AF6E122EF7903F84E0FEA3E04E
:012DFF00FFD4
:012E000022AF
:1029B700AE07C2E990E678E04480F0EE25E090E6C5
:1029C70079F090E678E030E0F9ED90E679F090E67E
:1029D70078E030E0F990E678E04440F090E678E07F
:0D29E70030E0F990E678E020E6F9D2E92230
:022F7B00AC07A1
:102F7D001229B77A3F7B877D02122EF7903F87E0AB
:042F8D00FEA3E0FFC0
:012F9100221D
:08314300AD077F40122F7B2233
:102CA20090E682E030E004E020E60B90E682E0303D
:102CB200E119E030E71590E680E04401F07F147EF0
:0C2CC2000012276690E680E054FEF0222D
:102D700090E682E044C0F090E681F04387010000D5
:042D8000000000222D
:102C730030410990E680E0440AF0800790E680E066
:102C83004408F07FDC7E0512276690E65D74FFF052
:0F2C930090E65FF05391EF90E680E054F7F02267
:08314B00E4F51BD2E9D2AF222A
:102B0C0090E678E020E6F9C2E990E678E04480F0BF
:102B1C00EF25E090E679F090E678E030E0F990E689
:102B2C0078E04440F090E678E020E6F990E678E032
:062B3C0030E1D6D2E922CF
:102C1200A90790E678E020E6F9E51B702390E678B4
:102C2200E04480F0E925E090E679F08D16AF03A943
:102C3200077517018A188919E4F51A751B01D32241
:022C4200C322AB
:102BAB00A90790E678E020E6F9E51B702590E6781A
:102BBB00E04480F0E925E0440190E679F08D16AF12
:102BCB0003A9077517018A188919E4F51A751B03F0
:042BDB00D322C3221C
:03004B00021AE3B3
:101AE300C0E0C083C082C085C084C086758600C044
:101AF300D075D000C000C001C002C003C006C0073B
:101B030090E678E030E206751B06021BCD90E6787E
:101B1300E020E10CE51B64026006751B07021BCD88
:101B2300E51B24FE605F14603624FE7003021BBEB7
:101B330024FC7003021BCA24086003021BCDAB17ED
:101B4300AA18A919AF1A051A8F82758300120743C1
:101B530090E679F0E51A65167070751B05806B9039
:101B6300E679E0AB17AA18A919AE1A8E827583001D
:101B7300120782751B02E5166401704E90E678E049
:101B83004420F08045E51624FEB51A0790E678E078
:101B93004420F0E51614B51A0A90E678E04440F0C4
:101BA300751B0090E679E0AB17AA18A919AE1A8E37
:101BB30082758300120782051A800F90E678E0444D
:101BC30040F0751B008003751B005391DFD007D0D5
:101BD30006D003D002D001D000D0D0D086D084D09C
:081BE30085D082D083D0E032EE
:022CCE00A90754
:102CD000AE14AF158F828E83A3E064037017AD012D
:102CE00019ED7001228F828E83E07C002FFDEC3E77
:092CF000FEAF0580DF7E007F00CD
:012CF90022B8
:102EF700122BABE51B24FA600E146006240770F34F
:0C2F0700D322E4F51BD322E4F51BD322F7
:102F1300122C12E51B24FA600E146006240770F3CA
:0C2F2300D322E4F51BD322E4F51BD322DB
:102766008E398F3A90E600E054187012E53A24014B
:10277600FFE43539C313F539EF13F53A801590E6C2
:1027860000E05418FFBF100BE53A25E0F53AE539AD
:1027960033F539E53A153AAE39700215394E60050A
:0627A600122D8480EE22DA
:102D84007400F58690FDA57C05A3E582458370F962
:012D9400221C
:0B31070025303262580025303458009B
:02304300C14288
:102F4B00743FF59A7440F59B74E7F59D74C0F59E3C
:092F5B00E4227B017A3F79402257
:05316100A24192422290
:1026D300204204E4FEFF2290E6A2E020E1F9122F5B
:1026E3005D122FE6EF2401F544E43EF543122F4B30
:1026F300FFFEC3EF9544E5436480F8EE6480985091
:102703000F90E67BE090E67CF00FBF00010E80E2C5
:09271300E54490E68FF0AE43FFAF
:01271C00229A
:1028F9008B408A418942204204E4FEFF2212292F9B
:102909008E498F4A854046854147854248122F5D49
:1029190012254812292F74402FF582743F3EF58302
:10292900E4F01226D322AB40AA41A942122FE62293
:10300F00204204E4FEFF22903F40EFF0E4A3F012D1
:03301F0026D32293
:102F2F00204204E4FEFF227550FF755131755207A0
:0C2F3F008F53122F5D120ADD1226D322E0
:102EBC00204204E4FEFF227550FF75513175520D0E
:0E2ECC008E538F54122F5D120ADD1226D32270
:1023100090E685E02405F569204204E4FEFF22787A
:10232000407C3F7D01120A6490E6A2E030E1079014
:06233000E685E0B569F24C
:10233600122F5D122FE6EF2401F56DE43EF56C12C7
:102346002F4BF56AF56BC3E56B956DE56C6480F80C
:10235600E56A648098501290E67BE090E67CF00592
:102366006BE56B70E1056A80DDE56D90E68FF0AE9A
:022376006CFFFA
:012378002242
:1001B20002046DE86480F8E933E83360110460F00A
:1001C200ED33EC337009E8FCE9FDEAFEEBFF2204B3
:1001D20060DED3EB9FEA9EE99DE8C2E78CF0C2F7AE
:1001E20095F0400CE8CCF8E9CDF9EACEFAEBCFFB7A
:1001F20012043885D0F05804700320D5B3E8047097
:10020200075002B2D502047792D5EC0460F7E4CC31
:10021200C0E0C398F8603B94186008400DD0E0FB42
:1002220002044FE4FBFAC9FC8028E830E406E4C982
:10023200FBE4CAFCE830E305E4C9CACBFCE8540796
:100242006010F8C3E913F9EA13FAEB13FBEC13FCA1
:10025200D8F130F52FC3E49CFCEF9BFFEE9AFEED44
:1002620099FDD0E0FBEF4E4D4C701222DB030204ED
:1002720074EC2CFCEF33FFEE33FEED33FDED30E793
:10028200EB02044FEF2BFFEE3AFEED39FDD0E0FB1F
:1002920050130BBB0003020477ED13FDEE13FEEFC8
:0802A20013FFEC13FC02044FF2
:1002AA00020477EC5D046005E85904700302046DEA
:1002BA00120438580460F6EC4860F2EC7004FDFE53
:1002CA00FF22C860DB2481C85009C3986002500627
:1002DA000204749850CAF582E9294B4A7005AB8228
:1002EA0002046375F0007C1A7880C3EF9BEE9AEDE6
:1002FA0099400DC3EF9BFFEE9AFEED99FDE842F09F
:10030A00DC23ACF0D0E0FFD0E0FED0E0FDAB8220F1
:10031A00E7101BEB60BAEC2CFCEF33FFEE33FEED7B
:10032A0033FD02044FE803F830E705C0F075F0002A
:10033A00EF2FFFEE33FEED33FD40B830E7C280AA5F
:10034A0074F8CC6480CCC86480C8F58204604FC35A
:10035A00EB9FF5F0EA9E42F0E99D42F0E89C45F0F9
:10036A00603C501DE5825FFFE582D313CB5BCBF483
:10037A002B5582FB50280ABA002409B900200880AC
:10038A001DE5825BFBE582D313CF5FCFF4C3132F46
:10039A005582FF50090EBE00050DBD00010CC3EBCE
:1003AA009FF5F0EA9E42F0E99D42F0E89C45F06034
:0903BA0007CC4820E701B3EC2256
:1003C30075F020800E75F010800575F0087D007EB5
:1003D300007F003392D530D50312080BEC33401065
:1003E300EF33FFEE33FEED33FDEC33FCD5F0ED22BE
:0E03F300E5F0247EA2D513CC92E7CDCEFF22FA
:10040100EDD2E7CD33EC3392D524814006E4FFFEF3
:10041100FDFC22FCE4CFCECDCC24E0501174FF8052
:10042100EDC3CC13CCCD13CDCE13CECF13CF0470EF
:07043100F030D5DE02080BDC
:100A8100E5642450F8E6056422784D303702785049
:100A9100E475F00112086702072A2030EB7F2ED29D
:100AA100308018EF540F2490D43440D4FF30340BED
:100AB100EF24BFB41A0050032461FFE565600215FD
:100AC100650568E5687002056730370D784DE47596
:100AD100F001120867EF020770022D497403D23743
:100AE1008003E4C237F5648B4D8A4E894FE4F56586
:100AF100F567F568E56560077F20120ABC80F5752A
:100B010066FFC231C230C232C233C235C236C238C8
:100B1100120A8AFF700D3037057F00120ACDAF68C7
:100B2100AE6722B4255FC2D5C234120A8AFF24D02F
:100B3100B40A00501A75F00A786530D50508B6FF79
:100B41000106C6A426F620D5047002D23380D9242A
:100B5100CFB41A00EF5004C2E5D234020DBAD2313B
:100B610080C6D23080C0D23280BCD2D580BAD235D4
:100B710080B47F20120ABC2032077401B5650040A1
:100B8100F1120A81FF120ABC020AF5D238D236806C
:100B910095120A81FB120A81FA120A81F94A4B70F5
:100BA1000679B17A0E7BFF20322EE565602A7E0040
:100BB1008E8275830012074360060EEE656670F043
:100BC100C2D5EBC0E0EAC0E0E9C0E0EE120E1AD0F7
:100BD100E0F9D0E0FAD0E0FB12072AFF60AAEBC0EF
:100BE100E0EAC0E0E9C0E0120ABCD0E02401F9D09B
:100BF100E03400FAD0E0FBE5660460DCD566D9801C
:100C010087D23280A2120DFD60F7E56670010412F1
:100C11000482A966600DE566600914F566120EA4EA
:100C2100EF60F3EA30E702F404C3995077EAF42560
:100C3100660430E701E404F566800D120DFD60C124
:100C4100EA05662566120482EA7863F630E701E474
:100C5100256604D5660420350114120E1AE4C0E09D
:100C6100120EA47863E6601320E70714F6120AA4B3
:100C7100802204F6D0E014C0E07F00120AA4E566E9
:100C81006007120A9B1566800B303503120A9BD050
:100C9100E0020AF5D0E00480C5120DFD60A0E56612
:100CA100041204827863EAF6E566203502600104E5
:050CB1002404120E1ADC
:100CB60074FF04C0E0120EA4120AA4E566203502F1
:100CC6006003120A9BD0E0B566E87F45120AAE784B
:100CD60063E67F2B30E7047F2DF404C0E0120ABCE4
:100CE600D0E075F00A84C0F0120AA5D0E0120AA579
:100CF600020AF5791080027908C236C2388008D215
:100D0600D5790A8004790AC2D5E566047002F566CB
:100D1600E4FAFDFEFF120A81FC7B08203113120A59
:100D260081FD7B1030300A120A81FE120A81FF7B98
:100D360020EC3382D592D55013C3E43030069FFFA2
:100D4600E49EFEE42031039DFDE49CFCE4CBF8C266
:100D560031EC700CCFCECDCCE824F8F870F38017C8
:100D6600C3EF33FFEE33FEED33FDEC33FCEB33FB29
:100D7600994002FB0FD8E9EB303105F8D0E0C448C2
:100D8600B231C0E00AEC4D4E4F78207B0070C2EACB
:100D9600B5660040BCC0E0120E1CD0F0D0E0203199
:100DA60004C4C0E0C4B231C0F0120AA5D0F0D5F038
:100DB600EB020AF51208770B92530CF9580B634CA9
:100DC6000B5F420CFD4F0D05440D05490B78430D95
:100DD6000B550C3C460C9A450C06470ED1500B673A
:100DE6002D0B6B2E0B8E2B0B6F230B8C200EBA2A22
:100DF6000B274800000B86E566B4FF0375660612EE
:100E06000A81FC120A81FD120A81FE120A81FF780C
:100E16005C0204B1790AA2D5203314303509B91021
:100E2600020404B9080104A2D520360250010420A8
:100E360032689232B565005034C0E07F20303319F5
:100E46007F30A23272367235500F120E73C232C222
:100E560036C235C2387F30800F303503E9C0E01224
:100E66000ABC303503D0E0F9D0E0B565CC30351793
:100E76007F30B9100C120ABC7F583034077F788057
:100E860003B90803120ABC3032057F2D020ABC7F63
:100E9600202038F87F2B2036F322923280CF7F0035
:100EA600B407005005245CF8E6FF22286E756C6CCA
:100EB6002900D231120A813031F8C231786530D535
:100EC6000108F6020B272D50434958120A812403C4
:100ED600B405004001E4900ECC93120AAD743A12A8
:0A0EE6000AADD233756504020CF961
:10043800E9D2E7C933E833F892D5EDD2E7CD33EC0A
:0704480033FC5002B2D52283
:10044F00EC30E7100FBF000C0EBE00080DBD00040E
:10045F000BEB6014A2D5EB13FCED92E7FD2274FFBA
:10046F00FCFDFEFF22E480F8A2D574FF13FC7D8013
:03047F00E480EF27
:10048200F920E72824F950037907E4F42402FB1841
:10049200DBFDE624FB5014E9600DE4F618E604F6F1
:0F04A200B40A08E4F6D9F57401F60A22C2D5228D
:1004B100ED33EC3392D5FA602AB4FF33EDC2E77B1A
:1004C100FF60067A0479D6E4227A0479DF20D50424
:1004D1007A0479DA224E614E002B494E46002D49AD
:1004E1004E4600E47A08F608DAFC7B00740722E83D
:1004F100C0E0ECC0E0EDC0E0EEC0E0EFC0E0EA75C6
:10050100F010A4CAABF075F04DA42BFBE435F0FC60
:10051100EA2410FAEB34C5FBEC34D9FCEDC2E7FF59
:1005210075F056A4F42411C5F0F434C58FF0A42A53
:10053100E5F03BE43CF620E7141206EAD0E0FFD0F8
:10054100E0FED0E0FDD0E0FC1202AD8014F4041214
:1005510006EAD0E0FFD0E0FED0E0FDD0E0FC1205DD
:10056100B4D0E0F8E6FAEDD2E7CD33EC332482FBE8
:10057100E4C3CF33CFCE33CECD33CD33DBF37B07E3
:1005810075F00A846004F6081B0AE5F0F6088FF09E
:10059100740AA4FFACF08EF0740AA42CFEACF050E7
:1005A100010C8DF0740AA42CFDE435F0F608DBDEB5
:0305B100740722AA
:1005B400EC4D6011E8497017ED33EC3304600DE441
:1005C400FCFFFEFD22E933E8330470F802046D12E7
:1005D400043858046009E4CC2481500628500902E8
:1005E4000477284003020474C0E0EB4A7044B980E5
:1005F40006D0E0FB020463EF4E701CBD8008EBFFE5
:10060400EAFEE9FD80EBE98DF0A4FEE5F002069D2B
:10061400E9CDF9EAFEEBFFEF89F0A4FCE5F0CE8921
:10062400F0A42EFFE435F0CD89F0A42DFEE435F0DE
:100634008067EF4E7005BD80D780C3EF8BF0A4AC0C
:10064400F0EE8BF0A42CFCE435F0F8EF8AF0A42C47
:10065400E5F038FCE433CB8DF0A42CFCE5F03BF85A
:10066400EE8AF0A42CFCE5F038F8E433CF89F0A44A
:100674002CFCE5F038CF3400CE89F0A42FFFE5F050
:100684003EFEE433C98DF0A42EFEE5F039CD8AF0A8
:10069400A42FFFE5F03EFEE43DFD33D0E0FB500720
:1006A4000BBB000F020477EC2CFCEF33FFEE33FEA0
:0606B400ED33FD02044FCE
:1006BA003F8000004120000042C80000447A000048
:1006CA00461C400047C35000497424004B189680CA
:1006DA004CBEBC205A0E1BCA6753C21C749DC5AEC1
:1006EA00FB60065407601C2323120718EB5438607A
:1006FA00091207041207131205B4ECF8EDF9EEFA21
:10070A00EFCB22EB12071380F1543803241C900616
:10071A00BAFE93FC0EEE93FD0EEE930ECE93FF22DD
:030000000221FDDD
:0C21FD00787FE4F6D8FD7581A80222442A
:10072A00BB010689828A83E0225002E722BBFE02CD
:09073A00E32289828A83E4932200
:10074300BB010CE58229F582E5833AF583E022506B
:1007530006E92582F8E622BBFE06E92582F8E222B5
:0D076300E58229F582E5833AF583E49322CF
:10077000BB010689828A83F0225002F722BBFE0168
:02078000F32262
:10078200F8BB010DE58229F582E5833AF583E8F0AD
:10079200225006E92582C8F622BBFE05E92582C859
:0207A200F22241
:1007A400EF8DF0A4A8F0CF8CF0A428CE8DF0A42E69
:0207B400FE2223
:1007B600BC000BBE0029EF8DF084FFADF022E4CC27
:1007C600F875F008EF2FFFEE33FEEC33FCEE9DECF0
:1007D600984005FCEE9DFE0FD5F0E9E4CEFD22ED36
:1007E600F8F5F0EE8420D21CFEADF075F008EF2F80
:1007F600FFED33FD4007985006D5F0F222C398FD71
:050806000FD5F0EA220D
:0E080B00C3E49FFFE49EFEE49DFDE49CFC22FE
:10081900EB9FF5F0EA9E42F0E99D42F0E89C45F035
:0108290022AC
:0C082A00E0FCA3E0FDA3E0FEA3E0FF2241
:10083600A8828583F0D083D08212084D12084D120B
:10084600084D12084DE473E493A3C583C5F0C58330
:10085600C8C582C8F0A3C583C5F0C583C8C582C80C
:01086600226F
:10086700FAE6FB0808E6F925F0F618E6CA3AF62292
:10087700D083D082F8E4937012740193700DA3A310
:1008870093F8740193F5828883E473740293686024
:06089700EFA3A3A380DF24
:10089D00D083D082F8E4937012740193700DA3A3EA
:1008AD0093F8740193F5828883E473740293B5F021
:0D08BD00067403936860E9A3A3A3A380D889
:102D4900EFB40A07740D122D54740A309811A8991A
:102D5900B8130CC2983098FDA899C298B811F630EA
:072D690099FDC299F59922C2
:102548008B438A448945E4F54BF54CE54A154AAE78
:1025580049700215494E6033AB46AA47A94812078D
:102568002AFFAB43AA44A945054CE54CAC4B700285
:10257800054B14F5828C83EF120782EF60CD74014E
:102588002548F548E43547F54780C0AB43AA44A938
:022598004522DA
:102FE600E4FFFE12072A600C0FEF70010E09E9706C
:052FF600F20A80EF2249
:1008CA00E709F608DFFA8046E709F208DFFA803E10
:1008DA0088828C83E709F0A3DFFA8032E309F608FD
:1008EA00DFFA806EE309F208DFFA806688828C8379
:1008FA00E309F0A3DFFA805A89828A83E0A3F60823
:10090A00DFFA804E89828A83E0A3F208DFFA804206
:10091A0080D280FA80C680D4805580F280298010E7
:10092A0080A680EA809A80A880DA80E280CA80293C
:10093A0088848C8589828A83E493A30586F0A3053B
:10094A0086DFF5DEF3800B89828A83E493A3F608B7
:10095A00DFF9ECFAA9F0EDFB2288848C8589828A7A
:10096A0083E0A30586F0A30586DFF6DEF480E3893B
:10097A00828A83E493A3F208DFF980D688F0EF60D5
:10098A00010E4E60CD88F0ED2402B4040050C3F588
:10099A0082EB2402B4040050B92323458223900930
:0209AA001A73BE
:1009AC00E709F60870FA8046E709F20870FA803E0B
:1009BC0088828C83E709F0A370FA8074E309F60847
:1009CC0070FA806CE309F20870FA806488828C8378
:1009DC00E309F0A370FA805889828A83E0A3F608B1
:1009EC0070FA804C89828A83E0A3F20870FA804006
:1009FC0080D280FA80C680D4805180F2802780100B
:100A0C0080A680EA809A80A880DA80E280CA80275B
:100A1C0088848C8589828A83E493A30586F0A30558
:100A2C008670F5800B89828A83E493A3F60870F9AB
:100A3C00ECFAA9F0EDFB2288848C8589828A83E00C
:100A4C00A30586F0A3058670F680E589828A83E487
:100A5C0093A3F20870F980D888F0ED2402B4040056
:100A6C0050CEF582EB2402B4040050C423234582FB
:050A7C00239009FC734A
:10220900021998E493A3F8E493A34003F68001F23A
:1022190008DFF48029E493A3F85407240CC8C333D6
:10222900C4540F4420C8834004F456800146F6DFA5
:10223900E4800B0102040810204080903034E47ED1
:10224900019360BCA3FF543F30E509541FFEE4939A
:10225900A360010ECF54C025E060A840B8E493A361
:10226900FAE493A3F8E493A3C8C582C8CAC583CA8C
:10227900F0A3C8C582C8CAC583CADFE9DEE780BE44
:01304500008A
:00000001FF
